{"contracts/SnapArcMarket.sol":{"SnapArcMarket":{"abi":[{"inputs":[{"internalType":"string","name":"name","type":"string"},{"internalType":"string","name":"symbol","type":"string"},{"internalType":"address","name":"initialOwner","type":"address"}],"stateMutability":"nonpayable","type":"constructor"},{"inputs":[],"name":"ERC721EnumerableForbiddenBatchMint","type":"error"},{"inputs":[{"internalType":"address","name":"sender","type":"address"},{"internalType":"uint256","name":"tokenId","type":"uint256"},{"internalType":"address","name":"owner","type":"address"}],"name":"ERC721IncorrectOwner","type":"error"},{"inputs":[{"internalType":"address","name":"operator","type":"address"},{"internalType":"uint256","name":"tokenId","type":"uint256"}],"name":"ERC721InsufficientApproval","type":"error"},{"inputs":[{"internalType":"address","name":"approver","type":"address"}],"name":"ERC721InvalidApprover","type":"error"},{"inputs":[{"internalType":"address","name":"operator","type":"address"}],"name":"ERC721InvalidOperator","type":"error"},{"inputs":[{"internalType":"address","name":"owner","type":"address"}],"name":"ERC721InvalidOwner","type":"error"},{"inputs":[{"internalType":"address","name":"receiver","type":"address"}],"name":"ERC721InvalidReceiver","type":"error"},{"inputs":[{"internalType":"address","name":"sender","type":"address"}],"name":"ERC721InvalidSender","type":"error"},{"inputs":[{"internalType":"uint256","name":"tokenId","type":"uint256"}],"name":"ERC721NonexistentToken","type":"error"},{"inputs":[{"internalType":"address","name":"owner","type":"address"},{"internalType":"uint256","name":"index","type":"uint256"}],"name":"ERC721OutOfBoundsIndex","type":"error"},{"inputs":[],"name":"EmptyImageURI","type":"error"},{"inputs":[],"name":"EmptyTitle","type":"error"},{"inputs":[{"internalType":"uint256","name":"expected","type":"uint256"},{"internalType":"uint256","name":"received","type":"uint256"}],"name":"IncorrectPayment","type":"error"},{"inputs":[{"internalType":"uint256","name":"price","type":"uint256"}],"name":"InvalidPrice","type":"error"},{"inputs":[],"name":"InvalidRange","type":"error"},{"inputs":[],"name":"MaxPhotosReached","type":"error"},{"inputs":[],"name":"NotPhotographer","type":"error"},{"inputs":[{"internalType":"address","name":"owner","type":"address"}],"name":"OwnableInvalidOwner","type":"error"},{"inputs":[{"internalType":"address","name":"account","type":"address"}],"name":"OwnableUnauthorizedAccount","type":"error"},{"inputs":[{"internalType":"uint256","name":"photoId","type":"uint256"}],"name":"PhotoNotActive","type":"error"},{"inputs":[{"internalType":"uint256","name":"photoId","type":"uint256"}],"name":"PhotoNotFound","type":"error"},{"inputs":[],"name":"ReentrancyGuardReentrantCall","type":"error"},{"inputs":[{"internalType":"uint256","name":"value","type":"uint256"},{"internalType":"uint256","name":"length","type":"uint256"}],"name":"StringsInsufficientHexLength","type":"error"},{"anonymous":false,"inputs":[{"indexed":true,"internalType":"address","name":"owner","type":"address"},{"indexed":true,"internalType":"address","name":"approved","type":"address"},{"indexed":true,"internalType":"uint256","name":"tokenId","type":"uint256"}],"name":"Approval","type":"event"},{"anonymous":false,"inputs":[{"indexed":true,"internalType":"address","name":"owner","type":"address"},{"indexed":true,"internalType":"address","name":"operator","type":"address"},{"indexed":false,"internalType":"bool","name":"approved","type":"bool"}],"name":"ApprovalForAll","type":"event"},{"anonymous":false,"inputs":[{"indexed":true,"internalType":"uint256","name":"tokenId","type":"uint256"},{"indexed":true,"internalType":"uint256","name":"photoId","type":"uint256"},{"indexed":true,"internalType":"address","name":"buyer","type":"address"},{"indexed":false,"internalType":"address","name":"photographer","type":"address"},{"indexed":false,"internalType":"uint256","name":"pricePaid","type":"uint256"},{"indexed":false,"internalType":"uint256","name":"timestamp","type":"uint256"}],"name":"LicensePurchased","type":"event"},{"anonymous":false,"inputs":[{"indexed":true,"internalType":"address","name":"previousOwner","type":"address"},{"indexed":true,"internalType":"address","name":"newOwner","type":"address"}],"name":"OwnershipTransferred","type":"event"},{"anonymous":false,"inputs":[{"indexed":true,"internalType":"uint256","name":"photoId","type":"uint256"},{"indexed":true,"internalType":"address","name":"photographer","type":"address"},{"indexed":false,"internalType":"string","name":"title","type":"string"},{"indexed":false,"internalType":"uint256","name":"price","type":"uint256"},{"indexed":false,"internalType":"string","name":"imageURI","type":"string"}],"name":"PhotoAdded","type":"event"},{"anonymous":false,"inputs":[{"indexed":true,"internalType":"uint256","name":"photoId","type":"uint256"},{"indexed":false,"internalType":"uint256","name":"price","type":"uint256"},{"indexed":false,"internalType":"bool","name":"active","type":"bool"}],"name":"PhotoUpdated","type":"event"},{"anonymous":false,"inputs":[{"indexed":true,"internalType":"address","name":"from","type":"address"},{"indexed":true,"internalType":"address","name":"to","type":"address"},{"indexed":true,"internalType":"uint256","name":"tokenId","type":"uint256"}],"name":"Transfer","type":"event"},{"inputs":[],"name":"MAX_PHOTOS","outputs":[{"internalType":"uint256","name":"","type":"uint256"}],"stateMutability":"view","type":"function"},{"inputs":[],"name":"MAX_PRICE","outputs":[{"internalType":"uint256","name":"","type":"uint256"}],"stateMutability":"view","type":"function"},{"inputs":[],"name":"MIN_PRICE","outputs":[{"internalType":"uint256","name":"","type":"uint256"}],"stateMutability":"view","type":"function"},{"inputs":[{"internalType":"string","name":"title","type":"string"},{"internalType":"string","name":"description","type":"string"},{"internalType":"string","name":"imageURI","type":"string"},{"internalType":"uint256","name":"price","type":"uint256"}],"name":"addPhoto","outputs":[{"internalType":"uint256","name":"photoId","type":"uint256"}],"stateMutability":"nonpayable","type":"function"},{"inputs":[{"internalType":"address","name":"to","type":"address"},{"internalType":"uint256","name":"tokenId","type":"uint256"}],"name":"approve","outputs":[],"stateMutability":"nonpayable","type":"function"},{"inputs":[{"internalType":"address","name":"owner","type":"address"}],"name":"balanceOf","outputs":[{"internalType":"uint256","name":"","type":"uint256"}],"stateMutability":"view","type":"function"},{"inputs":[{"internalType":"uint256","name":"photoId","type":"uint256"}],"name":"buyLicense","outputs":[],"stateMutability":"payable","type":"function"},{"inputs":[],"name":"getActivePhotoIds","outputs":[{"internalType":"uint256[]","name":"","type":"uint256[]"}],"stateMutability":"view","type":"function"},{"inputs":[{"internalType":"uint256","name":"tokenId","type":"uint256"}],"name":"getApproved","outputs":[{"internalType":"address","name":"","type":"address"}],"stateMutability":"view","type":"function"},{"inputs":[{"internalType":"address","name":"owner","type":"address"}],"name":"getLicenseIdsByOwner","outputs":[{"internalType":"uint256[]","name":"","type":"uint256[]"}],"stateMutability":"view","type":"function"},{"inputs":[{"internalType":"address","name":"owner","type":"address"},{"internalType":"address","name":"operator","type":"address"}],"name":"isApprovedForAll","outputs":[{"internalType":"bool","name":"","type":"bool"}],"stateMutability":"view","type":"function"},{"inputs":[],"name":"licenseCount","outputs":[{"internalType":"uint256","name":"","type":"uint256"}],"stateMutability":"view","type":"function"},{"inputs":[{"internalType":"uint256","name":"","type":"uint256"}],"name":"licenses","outputs":[{"internalType":"uint256","name":"photoId","type":"uint256"},{"internalType":"address","name":"buyer","type":"address"},{"internalType":"uint256","name":"pricePaid","type":"uint256"},{"internalType":"uint256","name":"purchasedAt","type":"uint256"}],"stateMutability":"view","type":"function"},{"inputs":[],"name":"name","outputs":[{"internalType":"string","name":"","type":"string"}],"stateMutability":"view","type":"function"},{"inputs":[],"name":"owner","outputs":[{"internalType":"address","name":"","type":"address"}],"stateMutability":"view","type":"function"},{"inputs":[{"internalType":"uint256","name":"tokenId","type":"uint256"}],"name":"ownerOf","outputs":[{"internalType":"address","name":"","type":"address"}],"stateMutability":"view","type":"function"},{"inputs":[],"name":"photoCount","outputs":[{"internalType":"uint256","name":"","type":"uint256"}],"stateMutability":"view","type":"function"},{"inputs":[{"internalType":"address","name":"","type":"address"}],"name":"photographerEarnings","outputs":[{"internalType":"uint256","name":"","type":"uint256"}],"stateMutability":"view","type":"function"},{"inputs":[{"internalType":"uint256","name":"","type":"uint256"}],"name":"photos","outputs":[{"internalType":"address","name":"photographer","type":"address"},{"internalType":"string","name":"title","type":"string"},{"internalType":"string","name":"description","type":"string"},{"internalType":"string","name":"imageURI","type":"string"},{"internalType":"uint256","name":"price","type":"uint256"},{"internalType":"bool","name":"active","type":"bool"},{"internalType":"uint256","name":"createdAt","type":"uint256"}],"stateMutability":"view","type":"function"},{"inputs":[],"name":"renounceOwnership","outputs":[],"stateMutability":"nonpayable","type":"function"},{"inputs":[{"internalType":"address","name":"from","type":"address"},{"internalType":"address","name":"to","type":"address"},{"internalType":"uint256","name":"tokenId","type":"uint256"}],"name":"safeTransferFrom","outputs":[],"stateMutability":"nonpayable","type":"function"},{"inputs":[{"internalType":"address","name":"from","type":"address"},{"internalType":"address","name":"to","type":"address"},{"internalType":"uint256","name":"tokenId","type":"uint256"},{"internalType":"bytes","name":"data","type":"bytes"}],"name":"safeTransferFrom","outputs":[],"stateMutability":"nonpayable","type":"function"},{"inputs":[{"internalType":"address","name":"operator","type":"address"},{"internalType":"bool","name":"approved","type":"bool"}],"name":"setApprovalForAll","outputs":[],"stateMutability":"nonpayable","type":"function"},{"inputs":[{"internalType":"bytes4","name":"interfaceId","type":"bytes4"}],"name":"supportsInterface","outputs":[{"internalType":"bool","name":"","type":"bool"}],"stateMutability":"view","type":"function"},{"inputs":[],"name":"symbol","outputs":[{"internalType":"string","name":"","type":"string"}],"stateMutability":"view","type":"function"},{"inputs":[{"internalType":"uint256","name":"index","type":"uint256"}],"name":"tokenByIndex","outputs":[{"internalType":"uint256","name":"","type":"uint256"}],"stateMutability":"view","type":"function"},{"inputs":[{"internalType":"address","name":"owner","type":"address"},{"internalType":"uint256","name":"index","type":"uint256"}],"name":"tokenOfOwnerByIndex","outputs":[{"internalType":"uint256","name":"","type":"uint256"}],"stateMutability":"view","type":"function"},{"inputs":[{"internalType":"uint256","name":"tokenId","type":"uint256"}],"name":"tokenURI","outputs":[{"internalType":"string","name":"","type":"string"}],"stateMutability":"view","type":"function"},{"inputs":[],"name":"totalSupply","outputs":[{"internalType":"uint256","name":"","type":"uint256"}],"stateMutability":"view","type":"function"},{"inputs":[{"internalType":"address","name":"from","type":"address"},{"internalType":"address","name":"to","type":"address"},{"internalType":"uint256","name":"tokenId","type":"uint256"}],"name":"transferFrom","outputs":[],"stateMutability":"nonpayable","type":"function"},{"inputs":[{"internalType":"address","name":"newOwner","type":"address"}],"name":"transferOwnership","outputs":[],"stateMutability":"nonpayable","type":"function"},{"inputs":[{"internalType":"uint256","name":"photoId","type":"uint256"},{"internalType":"uint256","name":"newPrice","type":"uint256"},{"internalType":"bool","name":"active","type":"bool"}],"name":"updatePhoto","outputs":[],"stateMutability":"nonpayable","type":"function"},{"stateMutability":"payable","type":"receive"}],"evm":{"bytecode":{"linkReferences":{},"object":"6080604052346103a757612df580380380610019816103ab565b9283398101906060818303126103a75780516001600160401b0381116103a757826100459183016103d0565b60208201519092906001600160401b0381116103a7576040916100699184016103d0565b9101516001600160a01b038116908190036103a75782516001600160401b0381116102bb575f54600181811c9116801561039d575b602082101461029d57601f811161033b575b506020601f82116001146102da57819293945f926102cf575b50508160011b915f199060031b1c1916175f555b81516001600160401b0381116102bb57600154600181811c911680156102b1575b602082101461029d57601f811161023a575b50602092601f82116001146101d957928192935f926101ce575b50508160011b915f199060031b1c1916176001555b80156101bb57600a80546001600160a01b03198116831790915560405191906001600160a01b03167f8be0079c531659141344cd1fd0a4f28419497f9722a3daafe3b4186f6b6457e05f80a360017f9b779b17422d0df92223018b32b4d1fa46e071723d6817e2486d003becc55f00556129d390816104228239f35b631e4fbdf760e01b5f525f60045260245ffd5b015190505f8061012a565b601f1982169360015f52805f20915f5b868110610222575083600195961061020a575b505050811b0160015561013f565b01515f1960f88460031b161c191690555f80806101fc565b919260206001819286850151815501940192016101e9565b60015f527fb10e2d527612073b26eecdfd717e6a320cf44b4afac2b0732d9fcbe2b7fa0cf6601f830160051c81019160208410610293575b601f0160051c01905b8181106102885750610110565b5f815560010161027b565b9091508190610272565b634e487b7160e01b5f52602260045260245ffd5b90607f16906100fe565b634e487b7160e01b5f52604160045260245ffd5b015190505f806100c9565b601f198216905f8052805f20915f5b8181106103235750958360019596971061030b575b505050811b015f556100dd565b01515f1960f88460031b161c191690555f80806102fe565b9192602060018192868b0151815501940192016102e9565b5f80527f290decd9548b62a8d60345a988386fc84ba6bc95484008f6362f93160ef3e563601f830160051c81019160208410610393575b601f0160051c01905b81811061038857506100b0565b5f815560010161037b565b9091508190610372565b90607f169061009e565b5f80fd5b6040519190601f01601f191682016001600160401b038111838210176102bb57604052565b81601f820112156103a7578051906001600160401b0382116102bb576103ff601f8301601f19166020016103ab565b92828452602083830101116103a757815f9260208093018386015e830101529056fe6080604052600436101561001a575b3615610018575f80fd5b005b5f3560e01c806301c11d961461021957806301ffc9a71461021457806306fdde031461020f578063081812fc1461020a578063095ea7b31461020557806312d28b181461020057806318160ddd146101fb57806323b872dd146101f657806328d97984146101f15780632f745c59146101ec5780632fbccc27146101e757806333790845146101e257806342842e0e146101dd578063433ef118146101d857806345e4234a146101d35780634f6ccce7146101ce57806355ce5419146101c957806360a6c2e5146101c45780636352211e146101bf57806370a08231146101ba578063715018a6146101b557806383aff8ba146101b05780638da5cb5b146101ab57806395d89b41146101a6578063a22cb465146101a1578063ad9f20a61461019c578063af2a5d6f14610197578063b88d4fde14610192578063c87b56dd1461018d578063cae1a69c14610188578063e985e9c5146101835763f2fde38b0361000e57611640565b6115e4565b611398565b610f6c565b610f06565b610e21565b610c90565b610bc6565b610b21565b610af9565b610a1c565b6109a3565b610980565b610950565b6108cf565b61086e565b6107cf565b6107b3565b61077b565b610746565b6106f2565b6106d5565b6106a6565b61060f565b6105ca565b610573565b610556565b610451565b6103e9565b610312565b610251565b3461023b575f36600319011261023b5760206040516706f05b59d3b200008152f35b5f80fd5b6001600160e01b031981160361023b57565b3461023b57602036600319011261023b5760043561026e8161023f565b63ffffffff60e01b1663780e9d6360e01b8114908115610297575b506040519015158152602090f35b6380ac58cd60e01b8114915081156102c9575b81156102b8575b505f610289565b6301ffc9a760e01b1490505f6102b1565b635b5e139f60e01b811491506102aa565b805180835260209291819084018484015e5f828201840152601f01601f1916010190565b90602061030f9281815201906102da565b90565b3461023b575f36600319011261023b576040515f5f5461033181610cb2565b80845290600181169081156103c55750600114610369575b6103658361035981850382610cfe565b604051918291826102fe565b0390f35b5f8080527f290decd9548b62a8d60345a988386fc84ba6bc95484008f6362f93160ef3e563939250905b8082106103ab57509091508101602001610359610349565b919260018160209254838588010152019101909291610393565b60ff191660208086019190915291151560051b840190910191506103599050610349565b3461023b57602036600319011261023b5760043561040681611ede565b505f526004602052602060018060a01b0360405f205416604051908152f35b600435906001600160a01b038216820361023b57565b602435906001600160a01b038216820361023b57565b3461023b57604036600319011261023b5761046a610425565b6024359061047782611ede565b33151580610543575b80610505575b6104f257610018926104d39181906001600160a01b0385811691167f8c5be1e5ebec7d5bd14f71427d1e84f3dd0314c0f7b2291e5b200ac8c7c3b9255f80a45f52600460205260405f2090565b80546001600160a01b0319166001600160a01b03909216919091179055565b63a9fbf51f60e01b5f523360045260245ffd5b5060ff61053b336105268460018060a01b03165f52600560205260405f2090565b9060018060a01b03165f5260205260405f2090565b541615610486565b506001600160a01b038116331415610480565b3461023b575f36600319011261023b576020600b54604051908152f35b3461023b575f36600319011261023b576020600854604051908152f35b606090600319011261023b576004356001600160a01b038116810361023b57906024356001600160a01b038116810361023b579060443590565b3461023b576100186105db36610590565b916116c6565b9181601f8401121561023b5782359167ffffffffffffffff831161023b576020838186019501011161023b57565b3461023b57608036600319011261023b5760043567ffffffffffffffff811161023b576106409036906004016105e1565b60243567ffffffffffffffff811161023b576106609036906004016105e1565b92906044359267ffffffffffffffff841161023b576103659461068a6106969536906004016105e1565b93909260643595611ad6565b6040519081529081906020820190565b3461023b57604036600319011261023b5760206106cd6106c4610425565b60243590611c18565b604051908152f35b3461023b575f36600319011261023b576020600c54604051908152f35b3461023b57602036600319011261023b576004355f52600e602052608060405f2080549060018060a01b03600182015416906003600282015491015491604051938452602084015260408301526060820152f35b3461023b5761001861075736610590565b9060405192610767602085610cfe565b5f84526107758383836116c6565b33612070565b3461023b57602036600319011261023b576001600160a01b0361079c610425565b165f52600f602052602060405f2054604051908152f35b3461023b575f36600319011261023b5760206040516127108152f35b3461023b57602036600319011261023b5760043560085481101561081f5760085f527ff3f7a9fe364faab93b216da50a3214154f22a0a2b415b23a84c8169e8b636ee30154604051908152602090f35b63295f44f760e21b5f525f60045260245260445ffd5b60206040818301928281528451809452019201905f5b8181106108585750505090565b825184526020938401939092019160010161084b565b3461023b57602036600319011261023b57610887610425565b61089081611d18565b61089981611ca6565b915f5b8281106108b157604051806103658682610835565b806108be60019284611c18565b6108c88287611cd8565b520161089c565b3461023b575f36600319011261023b57600b546108eb81611ca6565b5f9160015b8181111561090957838352604051806103658582610835565b805f52600d60205260ff600560405f2001541661092f575b61092a90611d05565b6108f0565b92610948818561094261092a9487611cd8565b52611d05565b939050610921565b3461023b57602036600319011261023b57602061096e600435611ede565b6040516001600160a01b039091168152f35b3461023b57602036600319011261023b5760206106cd61099e610425565b611d18565b3461023b575f36600319011261023b576109bb611f12565b600a80546001600160a01b031981169091555f906001600160a01b03167f8be0079c531659141344cd1fd0a4f28419497f9722a3daafe3b4186f6b6457e08280a3005b60443590811515820361023b57565b60243590811515820361023b57565b3461023b57606036600319011261023b57602435600435610a3b6109fe565b5f828152600d602052604090208054336001600160a01b0390911603610aea5767016345785d8a000084108015610ad9575b610ac55792610ab3826005868460047f076c701c3a018a90daa34d8a697e2965796fec3a6fc3b8f77dd9047c2d11055198990155019060ff801983541691151516179055565b604080519182529115156020820152a2005b637cb1974360e11b5f52600484905260245ffd5b506706f05b59d3b200008411610a6d565b63f93bc30560e01b5f5260045ffd5b3461023b575f36600319011261023b57600a546040516001600160a01b039091168152602090f35b3461023b575f36600319011261023b576040515f600154610b4181610cb2565b80845290600181169081156103c55750600114610b68576103658361035981850382610cfe565b60015f9081527fb10e2d527612073b26eecdfd717e6a320cf44b4afac2b0732d9fcbe2b7fa0cf6939250905b808210610bac57509091508101602001610359610349565b919260018160209254838588010152019101909291610b94565b3461023b57604036600319011261023b57610bdf610425565b610be7610a0d565b3315610c7d576001600160a01b038216918215610c6a5781610c27610c3892335f52600560205260405f209060018060a01b03165f5260205260405f2090565b9060ff801983541691151516179055565b604051901515815233907f17307eab39ab6107e8899845ad3d59bd9653f200f220920489ca2b5937696c3190602090a3005b82630b61174360e31b5f5260045260245ffd5b63a9fbf51f60e01b5f525f60045260245ffd5b3461023b575f36600319011261023b57602060405167016345785d8a00008152f35b90600182811c92168015610ce0575b6020831014610ccc57565b634e487b7160e01b5f52602260045260245ffd5b91607f1691610cc1565b634e487b7160e01b5f52604160045260245ffd5b90601f8019910116810190811067ffffffffffffffff821117610d2057604052565b610cea565b9060405191825f825492610d3884610cb2565b8084529360018116908115610da35750600114610d5f575b50610d5d92500383610cfe565b565b90505f9291925260205f20905f915b818310610d87575050906020610d5d928201015f610d50565b6020919350806001915483858901015201910190918492610d6e565b905060209250610d5d94915060ff191682840152151560051b8201015f610d50565b939060c09598979693610df4610e1094610e029360018060a01b0316885260e0602089015260e08801906102da565b9086820360408801526102da565b9084820360608601526102da565b956080830152151560a08201520152565b3461023b57602036600319011261023b576004355f908152600d6020526040902080546001600160a01b0316610365610e5c60018401610d25565b92610e6960028201610d25565b90610e7660038201610d25565b600482015490600660ff6005850154169301549360405197889788610dc5565b60405190610d5d608083610cfe565b60405190610d5d60e083610cfe565b67ffffffffffffffff8111610d2057601f01601f191660200190565b929192610edc82610eb4565b91610eea6040519384610cfe565b82948184528183011161023b578281602093845f960137010152565b3461023b57608036600319011261023b57610f1f610425565b610f2761043b565b906044356064359267ffffffffffffffff841161023b573660238501121561023b57610f60610018943690602481600401359101610ed0565b926107758383836116c6565b3461023b57602036600319011261023b57600435610f8981611ede565b50610f9c815f52600e60205260405f2090565b610fa590611d49565b908151610fba905f52600d60205260405f2090565b610fc390611d96565b90610fcd90612132565b9060208101928351936040830151610fe4906122d7565b92606081015191516040840151610ffa906123ae565b60208501519091906001600160a01b031661101490612404565b92516001600160a01b031661102890612404565b93606086015161103790612132565b955161104290612132565b6040517f7b226e616d65223a22536e617020417263204c6963656e7365202300000000006020820152998a99919891603b8b0161107e91611e28565b6201016960ed1b815260030161109391611e28565b61088b60f21b81526002016e113232b9b1b934b83a34b7b7111d1160891b8152600f016110bf91611e28565b61088b60f21b8152600201681134b6b0b3b2911d1160b91b81526009016110e591611e28565b61088b60f21b81526002016d2261747472696275746573223a5b60901b8152600e017f7b2274726169745f74797065223a2250686f746f222c2276616c7565223a22008152601f0161113691611e28565b62089f4b60ea1b81526003017f7b2274726169745f74797065223a224c6963656e73652054797065222c22766181527f6c7565223a225374616e6461726420526f79616c74792d46726565227d2c00006020820152603e017f7b2274726169745f74797065223a2250726963652050616964222c226469737081527f6c61795f74797065223a226e756d626572222c2276616c7565223a22000000006020820152603c016111e391611e28565b62089f4b60ea1b81526003017f7b2274726169745f74797065223a224275796572222c2276616c7565223a22008152601f0161121e91611e28565b62089f4b60ea1b81526003017f7b2274726169745f74797065223a2250686f746f67726170686572222c227661815265363ab2911d1160d11b602082015260260161126891611e28565b62089f4b60ea1b81526003017f7b2274726169745f74797065223a22507572636861736564204174222c22646981527f73706c61795f74797065223a2264617465222c2276616c7565223a00000000006020820152603b016112c991611e28565b611f4b60f21b81526002017f7b2274726169745f74797065223a2250686f746f204944222c2276616c7565228152611d1160f11b602082015260220161130e91611e28565b61227d60f01b8152600201615d7d60f01b815260020103601f19810182526113369082610cfe565b61133f906127a6565b6040517f646174613a6170706c69636174696f6e2f6a736f6e3b6261736536342c0000006020820152908190603d820161137891611e28565b03601f198101825261138a9082610cfe565b6040516103658192826102fe565b602036600319011261023b5760043560027f9b779b17422d0df92223018b32b4d1fa46e071723d6817e2486d003becc55f0054146115d55760027f9b779b17422d0df92223018b32b4d1fa46e071723d6817e2486d003becc55f0055611406815f52600d60205260405f2090565b80549091906001600160a01b0316156115c45761142e61142a600584015460ff1690565b1590565b6115b257600482015480340361159c575061144d6001600c5401600c55565b61152d600c54926114c961145f610e96565b848152336020820152346040820152426060820152611486865f52600e60205260405f2090565b8151815560208201516001820180546001600160a01b0319166001600160a01b039290921691909117905590600390606090604081015160028501550151910155565b6114d384336124b0565b80546001600160a01b03165f908152600f602052604090206114f6348254611e56565b90556115205f80808034611510875460018060a01b031690565b5af161151a611e63565b50611e92565b546001600160a01b031690565b604080516001600160a01b0392909216825234602083015242908201523392907f04af259bb4501a83279551a21f5baed67e463de6a2ce26106dafdbc282b678c990606090a461001860017f9b779b17422d0df92223018b32b4d1fa46e071723d6817e2486d003becc55f0055565b630d35e92160e01b5f526004523460245260445ffd5b635bf2483960e01b5f5260045260245ffd5b6290f0b160e51b5f5260045260245ffd5b633ee5aeb560e01b5f5260045ffd5b3461023b57604036600319011261023b57602060ff611634611604610425565b61160c61043b565b6001600160a01b039182165f9081526005865260408082209290931681526020919091522090565b54166040519015158152f35b3461023b57602036600319011261023b57611659610425565b611661611f12565b6001600160a01b031680156116b357600a80546001600160a01b0319811683179091556001600160a01b03167f8be0079c531659141344cd1fd0a4f28419497f9722a3daafe3b4186f6b6457e05f80a3005b631e4fbdf760e01b5f525f60045260245ffd5b6001600160a01b0382169291831561180e575f838152600260205260409020546001600160a01b031690336117fe575b6001600160a01b038216948490861580156117d2575b6001600160a01b0384165f90815260036020526040902060018154019055611740846104d3855f52600260205260405f2090565b8282897fddf252ad1be2c89b69c2b068fc378daa952ba7f163c4a11628f55a4df523b3ef5f80a4156117bc576117758261267f565b86036117ac575b5050506001600160a01b031680830361179457505050565b6364283d7b60e01b5f5260045260245260445260645ffd5b6117b5916126db565b5f8361177c565b868114611775576117cd82856125fc565b611775565b6117db836125da565b6001600160a01b0385165f90815260036020526040902080545f1901905561170c565b6118098433846128c5565b6116f6565b633250574960e11b5f525f60045260245ffd5b601f821161182e57505050565b5f5260205f20906020601f840160051c83019310611866575b601f0160051c01905b81811061185b575050565b5f8155600101611850565b9091508190611847565b919091825167ffffffffffffffff8111610d2057611898816118928454610cb2565b84611821565b6020601f82116001146118d75781906118c89394955f926118cc575b50508160011b915f199060031b1c19161790565b9055565b015190505f806118b4565b601f198216906118ea845f5260205f2090565b915f5b8181106119245750958360019596971061190c575b505050811b019055565b01515f1960f88460031b161c191690555f8080611902565b9192602060018192868b0151815501940192016118ed565b815181546001600160a01b0319166001600160a01b03919091161781559060018201602082015180519067ffffffffffffffff8211610d2057611989826119838554610cb2565b85611821565b602090601f8311600114611a1957826006959360c095936119be935f926118cc5750508160011b915f199060031b1c19161790565b90555b6119d2604082015160028601611870565b6119e3606082015160038601611870565b60808101516004850155611a126119fd60a0830151151590565b600586019060ff801983541691151516179055565b0151910155565b90601f19831691611a2d855f5260205f2090565b925f5b818110611a7157509260019285926006989660c0989610611a59575b505050811b0190556119c1565b01515f1960f88460031b161c191690555f8080611a4c565b92936020600181928786015181550195019301611a30565b908060209392818452848401375f828201840152601f01601f1916010190565b90611ac39061030f96949593606084526060840191611a89565b9360208201526040818503910152611a89565b949296959193968115611c09578315611bfa5767016345785d8a000083108015611be9575b611bd557600b5493612710851015611bc657611b6e98611bb3611bc193611b4560017fc5599502ef7e08dc858db3591620b575377af375ff511bf863940d8ea1e4d8319901600b55565b600b549b8c99611b53610ea5565b33815292611b62368a8f610ed0565b60208501523691610ed0565b6040820152611b7e368585610ed0565b6060820152866080820152611b9660a0820160019052565b4260c0820152611bae895f52600d60205260405f2090565b61193c565b604051948594339986611aa9565b0390a3565b63c42489fb60e01b5f5260045ffd5b637cb1974360e11b5f52600483905260245ffd5b506706f05b59d3b200008311611afb565b6326f93fd560e21b5f5260045ffd5b6352ddcdef60e11b5f5260045ffd5b611c2181611d18565b821015611c495760018060a01b03165f52600660205260405f20905f5260205260405f205490565b63295f44f760e21b5f5260018060a01b031660045260245260445ffd5b60405190611c75602083610cfe565b5f8252565b634e487b7160e01b5f52603260045260245ffd5b67ffffffffffffffff8111610d205760051b60200190565b90611cb082611c8e565b611cbd6040519182610cfe565b8281528092611cce601f1991611c8e565b0190602036910137565b8051821015611cec5760209160051b010190565b611c7a565b634e487b7160e01b5f52601160045260245ffd5b5f198114611d135760010190565b611cf1565b6001600160a01b03168015611d36575f52600360205260405f205490565b6322718ad960e21b5f525f60045260245ffd5b906040516080810181811067ffffffffffffffff821117610d205760409081528354825260018401546001600160a01b031660208301526002840154908201526003909201546060830152565b9060405160e0810181811067ffffffffffffffff821117610d205760405282546001600160a01b0316815291829060c090600690611dd660018201610d25565b6020850152611de760028201610d25565b6040850152611df860038201610d25565b606085015260048101546080850152611e21611e18600583015460ff1690565b151560a0860152565b0154910152565b805191908290602001825e015f815290565b9060028201809211611d1357565b9060018201809211611d1357565b91908201809211611d1357565b3d15611e8d573d90611e7482610eb4565b91611e826040519384610cfe565b82523d5f602084013e565b606090565b15611e9957565b60405162461bcd60e51b815260206004820152601f60248201527f5472616e7366657220746f2070686f746f67726170686572206661696c6564006044820152606490fd5b5f818152600260205260409020546001600160a01b0316908115611f00575090565b637e27328960e01b5f5260045260245ffd5b600a546001600160a01b03163303611f2657565b63118cdaa760e01b5f523360045260245ffd5b9081602091031261023b575161030f8161023f565b6001600160a01b03918216815291166020820152604081019190915260806060820181905261030f929101906102da565b9092833b611f8e575b50505050565b604051630a85bd0160e11b81529260209284928392611fb2925f9060048601611f4e565b03815f6001600160a01b0387165af15f918161203f575b506120035750611fd7611e63565b8051919082611ffc57633250574960e11b5f526001600160a01b03821660045260245ffd5b6020915001fd5b6001600160e01b03191663757a42ff60e11b0161202457505f808080611f88565b633250574960e11b5f526001600160a01b031660045260245ffd5b61206291925060203d602011612069575b61205a8183610cfe565b810190611f39565b905f611fc9565b503d612050565b939193843b612081575b5050505050565b6120a26020936040519586948594630a85bd0160e11b865260048601611f4e565b03815f6001600160a01b0387165af15f91816120e9575b506120c75750611fd7611e63565b6001600160e01b03191663757a42ff60e11b0161202457505f8080808061207a565b61210391925060203d6020116120695761205a8183610cfe565b905f6120b9565b9061211482610eb4565b6121216040519182610cfe565b8281528092611cce601f1991610eb4565b805f9172184f03e93ff9f4daa797ed6e38ed64bf6a1f0160401b821015612265575b806d04ee2d6d415b85acef8100000000600a921015612249575b662386f26fc10000811015612234575b6305f5e100811015612222575b612710811015612212575b6064811015612203575b10156121f8575b6121e360216121b86001850161210a565b938401015b5f1901916f181899199a1a9b1b9c1cb0b131b232b360811b600a82061a8353600a900490565b80156121f3576121e390916121bd565b505090565b6001909101906121a7565b600290606490049301926121a0565b6004906127109004930192612196565b6008906305f5e100900493019261218b565b601090662386f26fc10000900493019261217e565b6020906d04ee2d6d415b85acef8100000000900493019261216e565b506040915072184f03e93ff9f4daa797ed6e38ed64bf6a1f0160401b8104612154565b908160011b9180830460021490151715611d1357565b600281901b91906001600160fe1b03811603611d1357565b805160011015611cec5760210190565b908151811015611cec570160200190565b906122ea6122e58351612288565b61210a565b5f805b84518210156123a75761231161230383876122c6565b516001600160f81b03191690565b916001600160f81b03198316601160f91b8114908115612399575b501561236a5781605c61234a612343600195611d05565b92876122c6565b5361236161235782611d05565b945f1a91866122c6565b535b01906122ed565b60208360f81c1015612381575b6001919250612363565b60019161239061235782611d05565b53829150612377565b601760fa1b1490505f61232c565b8252509150565b61030f6123e8916123f66123d6670de0b6b3a76400006123cf818504612132565b930661271e565b60016040519586946020860190611e28565b601760f91b81520190611e28565b03601f198101835282610cfe565b6001600160a01b03168061241b6122e56028611e3a565b91825115611cec57603060208401536078612435846122b6565b536124406028611e48565b600181116124685750612451575090565b63e22e27eb60e01b5f52600452601460245260445ffd5b90600f81166010811015611cec576124ab916124a5916f181899199a1a9b1b9c1cb0b131b232b360811b901a61249e85886122c6565b5360041c90565b9161279a565b612440565b90604051906124c0602083610cfe565b5f82526001600160a01b038316801561180e575f828152600260205260409020546001600160a01b03168015801592908290846125ae575b6001600160a01b0388165f9081526003602052604090206001815401905561252c886104d3885f52600260205260405f2090565b8583837fddf252ad1be2c89b69c2b068fc378daa952ba7f163c4a11628f55a4df523b3ef5f80a415612598576125618561267f565b03612589575b5061257657610d5d9233611f7f565b6339e3563760e11b5f525f60045260245ffd5b61259383866126db565b612567565b808214612561576125a985846125fc565b612561565b6125b7866125da565b6001600160a01b0384165f90815260036020526040902080545f190190556124f8565b6125ec905f52600460205260405f2090565b80546001600160a01b0319169055565b5f916126519161260b81611d18565b91808552600760205260408520549160018060a01b0316855260066020526040852091838103612654575b5084526007602052836040812055905f5260205260405f2090565b55565b838652826020526040862054818752836020528060408820558652600760205260408620555f612636565b600854815f5260096020528060405f205568010000000000000000811015610d205760018101600855600854811015611cec5760085f527ff3f7a9fe364faab93b216da50a3214154f22a0a2b415b23a84c8169e8b636ee30155565b906126e582611d18565b5f19810192908311611d135760018060a01b03165f52600660205260405f20825f526020528060405f20555f52600760205260405f2055565b61272790612132565b805160128110156127965760120391601283119182611d13576127498461210a565b935f845b611d13578181101561277057806030612768600193896122c6565b53018461274d565b50506127909250926123f661030f92946040519485936020850190611e28565b90611e28565b5090565b8015611d13575f190190565b908151156128bb576127ca6127c56127be8451611e3a565b6003900490565b61229e565b90604051917f4142434445464748494a4b4c4d4e4f505152535455565758595a616263646566601f527f6768696a6b6c6d6e6f707172737475767778797a303132333435363738392b2f603f52602083018480518101602081018051915f82525b80891061287f575060209596975090600392915251068060011461286a5760021461285d575b50808452830101604052565b603d905f1901535f612851565b50603d90815f1982015360011901535f612851565b939760036004910198603f8a51818160121c165183538181600c1c16516001840153818160061c1651600284015316516003820153019361282b565b905061030f611c66565b9091906128e36001600160a01b038416801515908161292b57501590565b6128ec57505050565b6001600160a01b031661290b57637e27328960e01b5f5260045260245ffd5b63177e802f60e01b5f526001600160a01b0390911660045260245260445ffd5b6001600160a01b0384168082149250821561296b575b50811561294d57501590565b5f858152600460205260409020546001600160a01b03161415919050565b9091505f52600560205260ff6129948660405f209060018060a01b03165f5260205260405f2090565b5416905f61294156fea26469706673582212209f95b882aeeb112fbc92bc8666fa76dddca639d1c4f9929e797fe1e91696b3f164736f6c634300081b0033","opcodes":"PUSH1 0x80 PUSH1 0x40 MSTORE CALLVALUE PUSH2 0x3A7 JUMPI PUSH2 0x2DF5 DUP1 CODESIZE SUB DUP1 PUSH2 0x19 DUP2 PUSH2 0x3AB JUMP JUMPDEST SWAP3 DUP4 CODECOPY DUP2 ADD SWAP1 PUSH1 0x60 DUP2 DUP4 SUB SLT PUSH2 0x3A7 JUMPI DUP1 MLOAD PUSH1 0x1 PUSH1 0x1 PUSH1 0x40 SHL SUB DUP2 GT PUSH2 0x3A7 JUMPI DUP3 PUSH2 0x45 SWAP2 DUP4 ADD PUSH2 0x3D0 JUMP JUMPDEST PUSH1 0x20 DUP3 ADD MLOAD SWAP1 SWAP3 SWAP1 PUSH1 0x1 PUSH1 0x1 PUSH1 0x40 SHL SUB DUP2 GT PUSH2 0x3A7 JUMPI PUSH1 0x40 SWAP2 PUSH2 0x69 SWAP2 DUP5 ADD PUSH2 0x3D0 JUMP JUMPDEST SWAP2 ADD MLOAD PUSH1 0x1 PUSH1 0x1 PUSH1 0xA0 SHL SUB DUP2 AND SWAP1 DUP2 SWAP1 SUB PUSH2 0x3A7 JUMPI DUP3 MLOAD PUSH1 0x1 PUSH1 0x1 PUSH1 0x40 SHL SUB DUP2 GT PUSH2 0x2BB JUMPI PUSH0 SLOAD PUSH1 0x1 DUP2 DUP2 SHR SWAP2 AND DUP1 ISZERO PUSH2 0x39D JUMPI JUMPDEST PUSH1 0x20 DUP3 LT EQ PUSH2 0x29D JUMPI PUSH1 0x1F DUP2 GT PUSH2 0x33B JUMPI JUMPDEST POP PUSH1 0x20 PUSH1 0x1F DUP3 GT PUSH1 0x1 EQ PUSH2 0x2DA JUMPI DUP2 SWAP3 SWAP4 SWAP5 PUSH0 SWAP3 PUSH2 0x2CF JUMPI JUMPDEST POP POP DUP2 PUSH1 0x1 SHL SWAP2 PUSH0 NOT SWAP1 PUSH1 0x3 SHL SHR NOT AND OR PUSH0 SSTORE JUMPDEST DUP2 MLOAD PUSH1 0x1 PUSH1 0x1 PUSH1 0x40 SHL SUB DUP2 GT PUSH2 0x2BB JUMPI PUSH1 0x1 SLOAD PUSH1 0x1 DUP2 DUP2 SHR SWAP2 AND DUP1 ISZERO PUSH2 0x2B1 JUMPI JUMPDEST PUSH1 0x20 DUP3 LT EQ PUSH2 0x29D JUMPI PUSH1 0x1F DUP2 GT PUSH2 0x23A JUMPI JUMPDEST POP PUSH1 0x20 SWAP3 PUSH1 0x1F DUP3 GT PUSH1 0x1 EQ PUSH2 0x1D9 JUMPI SWAP3 DUP2 SWAP3 SWAP4 PUSH0 SWAP3 PUSH2 0x1CE JUMPI JUMPDEST POP POP DUP2 PUSH1 0x1 SHL SWAP2 PUSH0 NOT SWAP1 PUSH1 0x3 SHL SHR NOT AND OR PUSH1 0x1 SSTORE JUMPDEST DUP1 ISZERO PUSH2 0x1BB JUMPI PUSH1 0xA DUP1 SLOAD PUSH1 0x1 PUSH1 0x1 PUSH1 0xA0 SHL SUB NOT DUP2 AND DUP4 OR SWAP1 SWAP2 SSTORE PUSH1 0x40 MLOAD SWAP2 SWAP1 PUSH1 0x1 PUSH1 0x1 PUSH1 0xA0 SHL SUB AND PUSH32 0x8BE0079C531659141344CD1FD0A4F28419497F9722A3DAAFE3B4186F6B6457E0 PUSH0 DUP1 LOG3 PUSH1 0x1 PUSH32 0x9B779B17422D0DF92223018B32B4D1FA46E071723D6817E2486D003BECC55F00 SSTORE PUSH2 0x29D3 SWAP1 DUP2 PUSH2 0x422 DUP3 CODECOPY RETURN JUMPDEST PUSH4 0x1E4FBDF7 PUSH1 0xE0 SHL PUSH0 MSTORE PUSH0 PUSH1 0x4 MSTORE PUSH1 0x24 PUSH0 REVERT JUMPDEST ADD MLOAD SWAP1 POP PUSH0 DUP1 PUSH2 0x12A JUMP JUMPDEST PUSH1 0x1F NOT DUP3 AND SWAP4 PUSH1 0x1 PUSH0 MSTORE DUP1 PUSH0 KECCAK256 SWAP2 PUSH0 JUMPDEST DUP7 DUP2 LT PUSH2 0x222 JUMPI POP DUP4 PUSH1 0x1 SWAP6 SWAP7 LT PUSH2 0x20A JUMPI JUMPDEST POP POP POP DUP2 SHL ADD PUSH1 0x1 SSTORE PUSH2 0x13F JUMP JUMPDEST ADD MLOAD PUSH0 NOT PUSH1 0xF8 DUP5 PUSH1 0x3 SHL AND SHR NOT AND SWAP1 SSTORE PUSH0 DUP1 DUP1 PUSH2 0x1FC JUMP JUMPDEST SWAP2 SWAP3 PUSH1 0x20 PUSH1 0x1 DUP2 SWAP3 DUP7 DUP6 ADD MLOAD DUP2 SSTORE ADD SWAP5 ADD SWAP3 ADD PUSH2 0x1E9 JUMP JUMPDEST PUSH1 0x1 PUSH0 MSTORE PUSH32 0xB10E2D527612073B26EECDFD717E6A320CF44B4AFAC2B0732D9FCBE2B7FA0CF6 PUSH1 0x1F DUP4 ADD PUSH1 0x5 SHR DUP2 ADD SWAP2 PUSH1 0x20 DUP5 LT PUSH2 0x293 JUMPI JUMPDEST PUSH1 0x1F ADD PUSH1 0x5 SHR ADD SWAP1 JUMPDEST DUP2 DUP2 LT PUSH2 0x288 JUMPI POP PUSH2 0x110 JUMP JUMPDEST PUSH0 DUP2 SSTORE PUSH1 0x1 ADD PUSH2 0x27B JUMP JUMPDEST SWAP1 SWAP2 POP DUP2 SWAP1 PUSH2 0x272 JUMP JUMPDEST PUSH4 0x4E487B71 PUSH1 0xE0 SHL PUSH0 MSTORE PUSH1 0x22 PUSH1 0x4 MSTORE PUSH1 0x24 PUSH0 REVERT JUMPDEST SWAP1 PUSH1 0x7F AND SWAP1 PUSH2 0xFE JUMP JUMPDEST PUSH4 0x4E487B71 PUSH1 0xE0 SHL PUSH0 MSTORE PUSH1 0x41 PUSH1 0x4 MSTORE PUSH1 0x24 PUSH0 REVERT JUMPDEST ADD MLOAD SWAP1 POP PUSH0 DUP1 PUSH2 0xC9 JUMP JUMPDEST PUSH1 0x1F NOT DUP3 AND SWAP1 PUSH0 DUP1 MSTORE DUP1 PUSH0 KECCAK256 SWAP2 PUSH0 JUMPDEST DUP2 DUP2 LT PUSH2 0x323 JUMPI POP SWAP6 DUP4 PUSH1 0x1 SWAP6 SWAP7 SWAP8 LT PUSH2 0x30B JUMPI JUMPDEST POP POP POP DUP2 SHL ADD PUSH0 SSTORE PUSH2 0xDD JUMP JUMPDEST ADD MLOAD PUSH0 NOT PUSH1 0xF8 DUP5 PUSH1 0x3 SHL AND SHR NOT AND SWAP1 SSTORE PUSH0 DUP1 DUP1 PUSH2 0x2FE JUMP JUMPDEST SWAP2 SWAP3 PUSH1 0x20 PUSH1 0x1 DUP2 SWAP3 DUP7 DUP12 ADD MLOAD DUP2 SSTORE ADD SWAP5 ADD SWAP3 ADD PUSH2 0x2E9 JUMP JUMPDEST PUSH0 DUP1 MSTORE PUSH32 0x290DECD9548B62A8D60345A988386FC84BA6BC95484008F6362F93160EF3E563 PUSH1 0x1F DUP4 ADD PUSH1 0x5 SHR DUP2 ADD SWAP2 PUSH1 0x20 DUP5 LT PUSH2 0x393 JUMPI JUMPDEST PUSH1 0x1F ADD PUSH1 0x5 SHR ADD SWAP1 JUMPDEST DUP2 DUP2 LT PUSH2 0x388 JUMPI POP PUSH2 0xB0 JUMP JUMPDEST PUSH0 DUP2 SSTORE PUSH1 0x1 ADD PUSH2 0x37B JUMP JUMPDEST SWAP1 SWAP2 POP DUP2 SWAP1 PUSH2 0x372 JUMP JUMPDEST SWAP1 PUSH1 0x7F AND SWAP1 PUSH2 0x9E JUMP JUMPDEST PUSH0 DUP1 REVERT JUMPDEST PUSH1 0x40 MLOAD SWAP2 SWAP1 PUSH1 0x1F ADD PUSH1 0x1F NOT AND DUP3 ADD PUSH1 0x1 PUSH1 0x1 PUSH1 0x40 SHL SUB DUP2 GT DUP4 DUP3 LT OR PUSH2 0x2BB JUMPI PUSH1 0x40 MSTORE JUMP JUMPDEST DUP2 PUSH1 0x1F DUP3 ADD SLT ISZERO PUSH2 0x3A7 JUMPI DUP1 MLOAD SWAP1 PUSH1 0x1 PUSH1 0x1 PUSH1 0x40 SHL SUB DUP3 GT PUSH2 0x2BB JUMPI PUSH2 0x3FF PUSH1 0x1F DUP4 ADD PUSH1 0x1F NOT AND PUSH1 0x20 ADD PUSH2 0x3AB JUMP JUMPDEST SWAP3 DUP3 DUP5 MSTORE PUSH1 0x20 DUP4 DUP4 ADD ADD GT PUSH2 0x3A7 JUMPI DUP2 PUSH0 SWAP3 PUSH1 0x20 DUP1 SWAP4 ADD DUP4 DUP7 ADD MCOPY DUP4 ADD ADD MSTORE SWAP1 JUMP INVALID PUSH1 0x80 PUSH1 0x40 MSTORE PUSH1 0x4 CALLDATASIZE LT ISZERO PUSH2 0x1A JUMPI JUMPDEST CALLDATASIZE ISZERO PUSH2 0x18 JUMPI PUSH0 DUP1 REVERT JUMPDEST STOP JUMPDEST PUSH0 CALLDATALOAD PUSH1 0xE0 SHR DUP1 PUSH4 0x1C11D96 EQ PUSH2 0x219 JUMPI DUP1 PUSH4 0x1FFC9A7 EQ PUSH2 0x214 JUMPI DUP1 PUSH4 0x6FDDE03 EQ PUSH2 0x20F JUMPI DUP1 PUSH4 0x81812FC EQ PUSH2 0x20A JUMPI DUP1 PUSH4 0x95EA7B3 EQ PUSH2 0x205 JUMPI DUP1 PUSH4 0x12D28B18 EQ PUSH2 0x200 JUMPI DUP1 PUSH4 0x18160DDD EQ PUSH2 0x1FB JUMPI DUP1 PUSH4 0x23B872DD EQ PUSH2 0x1F6 JUMPI DUP1 PUSH4 0x28D97984 EQ PUSH2 0x1F1 JUMPI DUP1 PUSH4 0x2F745C59 EQ PUSH2 0x1EC JUMPI DUP1 PUSH4 0x2FBCCC27 EQ PUSH2 0x1E7 JUMPI DUP1 PUSH4 0x33790845 EQ PUSH2 0x1E2 JUMPI DUP1 PUSH4 0x42842E0E EQ PUSH2 0x1DD JUMPI DUP1 PUSH4 0x433EF118 EQ PUSH2 0x1D8 JUMPI DUP1 PUSH4 0x45E4234A EQ PUSH2 0x1D3 JUMPI DUP1 PUSH4 0x4F6CCCE7 EQ PUSH2 0x1CE JUMPI DUP1 PUSH4 0x55CE5419 EQ PUSH2 0x1C9 JUMPI DUP1 PUSH4 0x60A6C2E5 EQ PUSH2 0x1C4 JUMPI DUP1 PUSH4 0x6352211E EQ PUSH2 0x1BF JUMPI DUP1 PUSH4 0x70A08231 EQ PUSH2 0x1BA JUMPI DUP1 PUSH4 0x715018A6 EQ PUSH2 0x1B5 JUMPI DUP1 PUSH4 0x83AFF8BA EQ PUSH2 0x1B0 JUMPI DUP1 PUSH4 0x8DA5CB5B EQ PUSH2 0x1AB JUMPI DUP1 PUSH4 0x95D89B41 EQ PUSH2 0x1A6 JUMPI DUP1 PUSH4 0xA22CB465 EQ PUSH2 0x1A1 JUMPI DUP1 PUSH4 0xAD9F20A6 EQ PUSH2 0x19C JUMPI DUP1 PUSH4 0xAF2A5D6F EQ PUSH2 0x197 JUMPI DUP1 PUSH4 0xB88D4FDE EQ PUSH2 0x192 JUMPI DUP1 PUSH4 0xC87B56DD EQ PUSH2 0x18D JUMPI DUP1 PUSH4 0xCAE1A69C EQ PUSH2 0x188 JUMPI DUP1 PUSH4 0xE985E9C5 EQ PUSH2 0x183 JUMPI PUSH4 0xF2FDE38B SUB PUSH2 0xE JUMPI PUSH2 0x1640 JUMP JUMPDEST PUSH2 0x15E4 JUMP JUMPDEST PUSH2 0x1398 JUMP JUMPDEST PUSH2 0xF6C JUMP JUMPDEST PUSH2 0xF06 JUMP JUMPDEST PUSH2 0xE21 JUMP JUMPDEST PUSH2 0xC90 JUMP JUMPDEST PUSH2 0xBC6 JUMP JUMPDEST PUSH2 0xB21 JUMP JUMPDEST PUSH2 0xAF9 JUMP JUMPDEST PUSH2 0xA1C JUMP JUMPDEST PUSH2 0x9A3 JUMP JUMPDEST PUSH2 0x980 JUMP JUMPDEST PUSH2 0x950 JUMP JUMPDEST PUSH2 0x8CF JUMP JUMPDEST PUSH2 0x86E JUMP JUMPDEST PUSH2 0x7CF JUMP JUMPDEST PUSH2 0x7B3 JUMP JUMPDEST PUSH2 0x77B JUMP JUMPDEST PUSH2 0x746 JUMP JUMPDEST PUSH2 0x6F2 JUMP JUMPDEST PUSH2 0x6D5 JUMP JUMPDEST PUSH2 0x6A6 JUMP JUMPDEST PUSH2 0x60F JUMP JUMPDEST PUSH2 0x5CA JUMP JUMPDEST PUSH2 0x573 JUMP JUMPDEST PUSH2 0x556 JUMP JUMPDEST PUSH2 0x451 JUMP JUMPDEST PUSH2 0x3E9 JUMP JUMPDEST PUSH2 0x312 JUMP JUMPDEST PUSH2 0x251 JUMP JUMPDEST CALLVALUE PUSH2 0x23B JUMPI PUSH0 CALLDATASIZE PUSH1 0x3 NOT ADD SLT PUSH2 0x23B JUMPI PUSH1 0x20 PUSH1 0x40 MLOAD PUSH8 0x6F05B59D3B20000 DUP2 MSTORE RETURN JUMPDEST PUSH0 DUP1 REVERT JUMPDEST PUSH1 0x1 PUSH1 0x1 PUSH1 0xE0 SHL SUB NOT DUP2 AND SUB PUSH2 0x23B JUMPI JUMP JUMPDEST CALLVALUE PUSH2 0x23B JUMPI PUSH1 0x20 CALLDATASIZE PUSH1 0x3 NOT ADD SLT PUSH2 0x23B JUMPI PUSH1 0x4 CALLDATALOAD PUSH2 0x26E DUP2 PUSH2 0x23F JUMP JUMPDEST PUSH4 0xFFFFFFFF PUSH1 0xE0 SHL AND PUSH4 0x780E9D63 PUSH1 0xE0 SHL DUP2 EQ SWAP1 DUP2 ISZERO PUSH2 0x297 JUMPI JUMPDEST POP PUSH1 0x40 MLOAD SWAP1 ISZERO ISZERO DUP2 MSTORE PUSH1 0x20 SWAP1 RETURN JUMPDEST PUSH4 0x80AC58CD PUSH1 0xE0 SHL DUP2 EQ SWAP2 POP DUP2 ISZERO PUSH2 0x2C9 JUMPI JUMPDEST DUP2 ISZERO PUSH2 0x2B8 JUMPI JUMPDEST POP PUSH0 PUSH2 0x289 JUMP JUMPDEST PUSH4 0x1FFC9A7 PUSH1 0xE0 SHL EQ SWAP1 POP PUSH0 PUSH2 0x2B1 JUMP JUMPDEST PUSH4 0x5B5E139F PUSH1 0xE0 SHL DUP2 EQ SWAP2 POP PUSH2 0x2AA JUMP JUMPDEST DUP1 MLOAD DUP1 DUP4 MSTORE PUSH1 0x20 SWAP3 SWAP2 DUP2 SWAP1 DUP5 ADD DUP5 DUP5 ADD MCOPY PUSH0 DUP3 DUP3 ADD DUP5 ADD MSTORE PUSH1 0x1F ADD PUSH1 0x1F NOT AND ADD ADD SWAP1 JUMP JUMPDEST SWAP1 PUSH1 0x20 PUSH2 0x30F SWAP3 DUP2 DUP2 MSTORE ADD SWAP1 PUSH2 0x2DA JUMP JUMPDEST SWAP1 JUMP JUMPDEST CALLVALUE PUSH2 0x23B JUMPI PUSH0 CALLDATASIZE PUSH1 0x3 NOT ADD SLT PUSH2 0x23B JUMPI PUSH1 0x40 MLOAD PUSH0 PUSH0 SLOAD PUSH2 0x331 DUP2 PUSH2 0xCB2 JUMP JUMPDEST DUP1 DUP5 MSTORE SWAP1 PUSH1 0x1 DUP2 AND SWAP1 DUP2 ISZERO PUSH2 0x3C5 JUMPI POP PUSH1 0x1 EQ PUSH2 0x369 JUMPI JUMPDEST PUSH2 0x365 DUP4 PUSH2 0x359 DUP2 DUP6 SUB DUP3 PUSH2 0xCFE JUMP JUMPDEST PUSH1 0x40 MLOAD SWAP2 DUP3 SWAP2 DUP3 PUSH2 0x2FE JUMP JUMPDEST SUB SWAP1 RETURN JUMPDEST PUSH0 DUP1 DUP1 MSTORE PUSH32 0x290DECD9548B62A8D60345A988386FC84BA6BC95484008F6362F93160EF3E563 SWAP4 SWAP3 POP SWAP1 JUMPDEST DUP1 DUP3 LT PUSH2 0x3AB JUMPI POP SWAP1 SWAP2 POP DUP2 ADD PUSH1 0x20 ADD PUSH2 0x359 PUSH2 0x349 JUMP JUMPDEST SWAP2 SWAP3 PUSH1 0x1 DUP2 PUSH1 0x20 SWAP3 SLOAD DUP4 DUP6 DUP9 ADD ADD MSTORE ADD SWAP2 ADD SWAP1 SWAP3 SWAP2 PUSH2 0x393 JUMP JUMPDEST PUSH1 0xFF NOT AND PUSH1 0x20 DUP1 DUP7 ADD SWAP2 SWAP1 SWAP2 MSTORE SWAP2 ISZERO ISZERO PUSH1 0x5 SHL DUP5 ADD SWAP1 SWAP2 ADD SWAP2 POP PUSH2 0x359 SWAP1 POP PUSH2 0x349 JUMP JUMPDEST CALLVALUE PUSH2 0x23B JUMPI PUSH1 0x20 CALLDATASIZE PUSH1 0x3 NOT ADD SLT PUSH2 0x23B JUMPI PUSH1 0x4 CALLDATALOAD PUSH2 0x406 DUP2 PUSH2 0x1EDE JUMP JUMPDEST POP PUSH0 MSTORE PUSH1 0x4 PUSH1 0x20 MSTORE PUSH1 0x20 PUSH1 0x1 DUP1 PUSH1 0xA0 SHL SUB PUSH1 0x40 PUSH0 KECCAK256 SLOAD AND PUSH1 0x40 MLOAD SWAP1 DUP2 MSTORE RETURN JUMPDEST PUSH1 0x4 CALLDATALOAD SWAP1 PUSH1 0x1 PUSH1 0x1 PUSH1 0xA0 SHL SUB DUP3 AND DUP3 SUB PUSH2 0x23B JUMPI JUMP JUMPDEST PUSH1 0x24 CALLDATALOAD SWAP1 PUSH1 0x1 PUSH1 0x1 PUSH1 0xA0 SHL SUB DUP3 AND DUP3 SUB PUSH2 0x23B JUMPI JUMP JUMPDEST CALLVALUE PUSH2 0x23B JUMPI PUSH1 0x40 CALLDATASIZE PUSH1 0x3 NOT ADD SLT PUSH2 0x23B JUMPI PUSH2 0x46A PUSH2 0x425 JUMP JUMPDEST PUSH1 0x24 CALLDATALOAD SWAP1 PUSH2 0x477 DUP3 PUSH2 0x1EDE JUMP JUMPDEST CALLER ISZERO ISZERO DUP1 PUSH2 0x543 JUMPI JUMPDEST DUP1 PUSH2 0x505 JUMPI JUMPDEST PUSH2 0x4F2 JUMPI PUSH2 0x18 SWAP3 PUSH2 0x4D3 SWAP2 DUP2 SWAP1 PUSH1 0x1 PUSH1 0x1 PUSH1 0xA0 SHL SUB DUP6 DUP2 AND SWAP2 AND PUSH32 0x8C5BE1E5EBEC7D5BD14F71427D1E84F3DD0314C0F7B2291E5B200AC8C7C3B925 PUSH0 DUP1 LOG4 PUSH0 MSTORE PUSH1 0x4 PUSH1 0x20 MSTORE PUSH1 0x40 PUSH0 KECCAK256 SWAP1 JUMP JUMPDEST DUP1 SLOAD PUSH1 0x1 PUSH1 0x1 PUSH1 0xA0 SHL SUB NOT AND PUSH1 0x1 PUSH1 0x1 PUSH1 0xA0 SHL SUB SWAP1 SWAP3 AND SWAP2 SWAP1 SWAP2 OR SWAP1 SSTORE JUMP JUMPDEST PUSH4 0xA9FBF51F PUSH1 0xE0 SHL PUSH0 MSTORE CALLER PUSH1 0x4 MSTORE PUSH1 0x24 PUSH0 REVERT JUMPDEST POP PUSH1 0xFF PUSH2 0x53B CALLER PUSH2 0x526 DUP5 PUSH1 0x1 DUP1 PUSH1 0xA0 SHL SUB AND PUSH0 MSTORE PUSH1 0x5 PUSH1 0x20 MSTORE PUSH1 0x40 PUSH0 KECCAK256 SWAP1 JUMP JUMPDEST SWAP1 PUSH1 0x1 DUP1 PUSH1 0xA0 SHL SUB AND PUSH0 MSTORE PUSH1 0x20 MSTORE PUSH1 0x40 PUSH0 KECCAK256 SWAP1 JUMP JUMPDEST SLOAD AND ISZERO PUSH2 0x486 JUMP JUMPDEST POP PUSH1 0x1 PUSH1 0x1 PUSH1 0xA0 SHL SUB DUP2 AND CALLER EQ ISZERO PUSH2 0x480 JUMP JUMPDEST CALLVALUE PUSH2 0x23B JUMPI PUSH0 CALLDATASIZE PUSH1 0x3 NOT ADD SLT PUSH2 0x23B JUMPI PUSH1 0x20 PUSH1 0xB SLOAD PUSH1 0x40 MLOAD SWAP1 DUP2 MSTORE RETURN JUMPDEST CALLVALUE PUSH2 0x23B JUMPI PUSH0 CALLDATASIZE PUSH1 0x3 NOT ADD SLT PUSH2 0x23B JUMPI PUSH1 0x20 PUSH1 0x8 SLOAD PUSH1 0x40 MLOAD SWAP1 DUP2 MSTORE RETURN JUMPDEST PUSH1 0x60 SWAP1 PUSH1 0x3 NOT ADD SLT PUSH2 0x23B JUMPI PUSH1 0x4 CALLDATALOAD PUSH1 0x1 PUSH1 0x1 PUSH1 0xA0 SHL SUB DUP2 AND DUP2 SUB PUSH2 0x23B JUMPI SWAP1 PUSH1 0x24 CALLDATALOAD PUSH1 0x1 PUSH1 0x1 PUSH1 0xA0 SHL SUB DUP2 AND DUP2 SUB PUSH2 0x23B JUMPI SWAP1 PUSH1 0x44 CALLDATALOAD SWAP1 JUMP JUMPDEST CALLVALUE PUSH2 0x23B JUMPI PUSH2 0x18 PUSH2 0x5DB CALLDATASIZE PUSH2 0x590 JUMP JUMPDEST SWAP2 PUSH2 0x16C6 JUMP JUMPDEST SWAP2 DUP2 PUSH1 0x1F DUP5 ADD SLT ISZERO PUSH2 0x23B JUMPI DUP3 CALLDATALOAD SWAP2 PUSH8 0xFFFFFFFFFFFFFFFF DUP4 GT PUSH2 0x23B JUMPI PUSH1 0x20 DUP4 DUP2 DUP7 ADD SWAP6 ADD ADD GT PUSH2 0x23B JUMPI JUMP JUMPDEST CALLVALUE PUSH2 0x23B JUMPI PUSH1 0x80 CALLDATASIZE PUSH1 0x3 NOT ADD SLT PUSH2 0x23B JUMPI PUSH1 0x4 CALLDATALOAD PUSH8 0xFFFFFFFFFFFFFFFF DUP2 GT PUSH2 0x23B JUMPI PUSH2 0x640 SWAP1 CALLDATASIZE SWAP1 PUSH1 0x4 ADD PUSH2 0x5E1 JUMP JUMPDEST PUSH1 0x24 CALLDATALOAD PUSH8 0xFFFFFFFFFFFFFFFF DUP2 GT PUSH2 0x23B JUMPI PUSH2 0x660 SWAP1 CALLDATASIZE SWAP1 PUSH1 0x4 ADD PUSH2 0x5E1 JUMP JUMPDEST SWAP3 SWAP1 PUSH1 0x44 CALLDATALOAD SWAP3 PUSH8 0xFFFFFFFFFFFFFFFF DUP5 GT PUSH2 0x23B JUMPI PUSH2 0x365 SWAP5 PUSH2 0x68A PUSH2 0x696 SWAP6 CALLDATASIZE SWAP1 PUSH1 0x4 ADD PUSH2 0x5E1 JUMP JUMPDEST SWAP4 SWAP1 SWAP3 PUSH1 0x64 CALLDATALOAD SWAP6 PUSH2 0x1AD6 JUMP JUMPDEST PUSH1 0x40 MLOAD SWAP1 DUP2 MSTORE SWAP1 DUP2 SWAP1 PUSH1 0x20 DUP3 ADD SWAP1 JUMP JUMPDEST CALLVALUE PUSH2 0x23B JUMPI PUSH1 0x40 CALLDATASIZE PUSH1 0x3 NOT ADD SLT PUSH2 0x23B JUMPI PUSH1 0x20 PUSH2 0x6CD PUSH2 0x6C4 PUSH2 0x425 JUMP JUMPDEST PUSH1 0x24 CALLDATALOAD SWAP1 PUSH2 0x1C18 JUMP JUMPDEST PUSH1 0x40 MLOAD SWAP1 DUP2 MSTORE RETURN JUMPDEST CALLVALUE PUSH2 0x23B JUMPI PUSH0 CALLDATASIZE PUSH1 0x3 NOT ADD SLT PUSH2 0x23B JUMPI PUSH1 0x20 PUSH1 0xC SLOAD PUSH1 0x40 MLOAD SWAP1 DUP2 MSTORE RETURN JUMPDEST CALLVALUE PUSH2 0x23B JUMPI PUSH1 0x20 CALLDATASIZE PUSH1 0x3 NOT ADD SLT PUSH2 0x23B JUMPI PUSH1 0x4 CALLDATALOAD PUSH0 MSTORE PUSH1 0xE PUSH1 0x20 MSTORE PUSH1 0x80 PUSH1 0x40 PUSH0 KECCAK256 DUP1 SLOAD SWAP1 PUSH1 0x1 DUP1 PUSH1 0xA0 SHL SUB PUSH1 0x1 DUP3 ADD SLOAD AND SWAP1 PUSH1 0x3 PUSH1 0x2 DUP3 ADD SLOAD SWAP2 ADD SLOAD SWAP2 PUSH1 0x40 MLOAD SWAP4 DUP5 MSTORE PUSH1 0x20 DUP5 ADD MSTORE PUSH1 0x40 DUP4 ADD MSTORE PUSH1 0x60 DUP3 ADD MSTORE RETURN JUMPDEST CALLVALUE PUSH2 0x23B JUMPI PUSH2 0x18 PUSH2 0x757 CALLDATASIZE PUSH2 0x590 JUMP JUMPDEST SWAP1 PUSH1 0x40 MLOAD SWAP3 PUSH2 0x767 PUSH1 0x20 DUP6 PUSH2 0xCFE JUMP JUMPDEST PUSH0 DUP5 MSTORE PUSH2 0x775 DUP4 DUP4 DUP4 PUSH2 0x16C6 JUMP JUMPDEST CALLER PUSH2 0x2070 JUMP JUMPDEST CALLVALUE PUSH2 0x23B JUMPI PUSH1 0x20 CALLDATASIZE PUSH1 0x3 NOT ADD SLT PUSH2 0x23B JUMPI PUSH1 0x1 PUSH1 0x1 PUSH1 0xA0 SHL SUB PUSH2 0x79C PUSH2 0x425 JUMP JUMPDEST AND PUSH0 MSTORE PUSH1 0xF PUSH1 0x20 MSTORE PUSH1 0x20 PUSH1 0x40 PUSH0 KECCAK256 SLOAD PUSH1 0x40 MLOAD SWAP1 DUP2 MSTORE RETURN JUMPDEST CALLVALUE PUSH2 0x23B JUMPI PUSH0 CALLDATASIZE PUSH1 0x3 NOT ADD SLT PUSH2 0x23B JUMPI PUSH1 0x20 PUSH1 0x40 MLOAD PUSH2 0x2710 DUP2 MSTORE RETURN JUMPDEST CALLVALUE PUSH2 0x23B JUMPI PUSH1 0x20 CALLDATASIZE PUSH1 0x3 NOT ADD SLT PUSH2 0x23B JUMPI PUSH1 0x4 CALLDATALOAD PUSH1 0x8 SLOAD DUP2 LT ISZERO PUSH2 0x81F JUMPI PUSH1 0x8 PUSH0 MSTORE PUSH32 0xF3F7A9FE364FAAB93B216DA50A3214154F22A0A2B415B23A84C8169E8B636EE3 ADD SLOAD PUSH1 0x40 MLOAD SWAP1 DUP2 MSTORE PUSH1 0x20 SWAP1 RETURN JUMPDEST PUSH4 0x295F44F7 PUSH1 0xE2 SHL PUSH0 MSTORE PUSH0 PUSH1 0x4 MSTORE PUSH1 0x24 MSTORE PUSH1 0x44 PUSH0 REVERT JUMPDEST PUSH1 0x20 PUSH1 0x40 DUP2 DUP4 ADD SWAP3 DUP3 DUP2 MSTORE DUP5 MLOAD DUP1 SWAP5 MSTORE ADD SWAP3 ADD SWAP1 PUSH0 JUMPDEST DUP2 DUP2 LT PUSH2 0x858 JUMPI POP POP POP SWAP1 JUMP JUMPDEST DUP3 MLOAD DUP5 MSTORE PUSH1 0x20 SWAP4 DUP5 ADD SWAP4 SWAP1 SWAP3 ADD SWAP2 PUSH1 0x1 ADD PUSH2 0x84B JUMP JUMPDEST CALLVALUE PUSH2 0x23B JUMPI PUSH1 0x20 CALLDATASIZE PUSH1 0x3 NOT ADD SLT PUSH2 0x23B JUMPI PUSH2 0x887 PUSH2 0x425 JUMP JUMPDEST PUSH2 0x890 DUP2 PUSH2 0x1D18 JUMP JUMPDEST PUSH2 0x899 DUP2 PUSH2 0x1CA6 JUMP JUMPDEST SWAP2 PUSH0 JUMPDEST DUP3 DUP2 LT PUSH2 0x8B1 JUMPI PUSH1 0x40 MLOAD DUP1 PUSH2 0x365 DUP7 DUP3 PUSH2 0x835 JUMP JUMPDEST DUP1 PUSH2 0x8BE PUSH1 0x1 SWAP3 DUP5 PUSH2 0x1C18 JUMP JUMPDEST PUSH2 0x8C8 DUP3 DUP8 PUSH2 0x1CD8 JUMP JUMPDEST MSTORE ADD PUSH2 0x89C JUMP JUMPDEST CALLVALUE PUSH2 0x23B JUMPI PUSH0 CALLDATASIZE PUSH1 0x3 NOT ADD SLT PUSH2 0x23B JUMPI PUSH1 0xB SLOAD PUSH2 0x8EB DUP2 PUSH2 0x1CA6 JUMP JUMPDEST PUSH0 SWAP2 PUSH1 0x1 JUMPDEST DUP2 DUP2 GT ISZERO PUSH2 0x909 JUMPI DUP4 DUP4 MSTORE PUSH1 0x40 MLOAD DUP1 PUSH2 0x365 DUP6 DUP3 PUSH2 0x835 JUMP JUMPDEST DUP1 PUSH0 MSTORE PUSH1 0xD PUSH1 0x20 MSTORE PUSH1 0xFF PUSH1 0x5 PUSH1 0x40 PUSH0 KECCAK256 ADD SLOAD AND PUSH2 0x92F JUMPI JUMPDEST PUSH2 0x92A SWAP1 PUSH2 0x1D05 JUMP JUMPDEST PUSH2 0x8F0 JUMP JUMPDEST SWAP3 PUSH2 0x948 DUP2 DUP6 PUSH2 0x942 PUSH2 0x92A SWAP5 DUP8 PUSH2 0x1CD8 JUMP JUMPDEST MSTORE PUSH2 0x1D05 JUMP JUMPDEST SWAP4 SWAP1 POP PUSH2 0x921 JUMP JUMPDEST CALLVALUE PUSH2 0x23B JUMPI PUSH1 0x20 CALLDATASIZE PUSH1 0x3 NOT ADD SLT PUSH2 0x23B JUMPI PUSH1 0x20 PUSH2 0x96E PUSH1 0x4 CALLDATALOAD PUSH2 0x1EDE JUMP JUMPDEST PUSH1 0x40 MLOAD PUSH1 0x1 PUSH1 0x1 PUSH1 0xA0 SHL SUB SWAP1 SWAP2 AND DUP2 MSTORE RETURN JUMPDEST CALLVALUE PUSH2 0x23B JUMPI PUSH1 0x20 CALLDATASIZE PUSH1 0x3 NOT ADD SLT PUSH2 0x23B JUMPI PUSH1 0x20 PUSH2 0x6CD PUSH2 0x99E PUSH2 0x425 JUMP JUMPDEST PUSH2 0x1D18 JUMP JUMPDEST CALLVALUE PUSH2 0x23B JUMPI PUSH0 CALLDATASIZE PUSH1 0x3 NOT ADD SLT PUSH2 0x23B JUMPI PUSH2 0x9BB PUSH2 0x1F12 JUMP JUMPDEST PUSH1 0xA DUP1 SLOAD PUSH1 0x1 PUSH1 0x1 PUSH1 0xA0 SHL SUB NOT DUP2 AND SWAP1 SWAP2 SSTORE PUSH0 SWAP1 PUSH1 0x1 PUSH1 0x1 PUSH1 0xA0 SHL SUB AND PUSH32 0x8BE0079C531659141344CD1FD0A4F28419497F9722A3DAAFE3B4186F6B6457E0 DUP3 DUP1 LOG3 STOP JUMPDEST PUSH1 0x44 CALLDATALOAD SWAP1 DUP2 ISZERO ISZERO DUP3 SUB PUSH2 0x23B JUMPI JUMP JUMPDEST PUSH1 0x24 CALLDATALOAD SWAP1 DUP2 ISZERO ISZERO DUP3 SUB PUSH2 0x23B JUMPI JUMP JUMPDEST CALLVALUE PUSH2 0x23B JUMPI PUSH1 0x60 CALLDATASIZE PUSH1 0x3 NOT ADD SLT PUSH2 0x23B JUMPI PUSH1 0x24 CALLDATALOAD PUSH1 0x4 CALLDATALOAD PUSH2 0xA3B PUSH2 0x9FE JUMP JUMPDEST PUSH0 DUP3 DUP2 MSTORE PUSH1 0xD PUSH1 0x20 MSTORE PUSH1 0x40 SWAP1 KECCAK256 DUP1 SLOAD CALLER PUSH1 0x1 PUSH1 0x1 PUSH1 0xA0 SHL SUB SWAP1 SWAP2 AND SUB PUSH2 0xAEA JUMPI PUSH8 0x16345785D8A0000 DUP5 LT DUP1 ISZERO PUSH2 0xAD9 JUMPI JUMPDEST PUSH2 0xAC5 JUMPI SWAP3 PUSH2 0xAB3 DUP3 PUSH1 0x5 DUP7 DUP5 PUSH1 0x4 PUSH32 0x76C701C3A018A90DAA34D8A697E2965796FEC3A6FC3B8F77DD9047C2D110551 SWAP9 SWAP10 ADD SSTORE ADD SWAP1 PUSH1 0xFF DUP1 NOT DUP4 SLOAD AND SWAP2 ISZERO ISZERO AND OR SWAP1 SSTORE JUMP JUMPDEST PUSH1 0x40 DUP1 MLOAD SWAP2 DUP3 MSTORE SWAP2 ISZERO ISZERO PUSH1 0x20 DUP3 ADD MSTORE LOG2 STOP JUMPDEST PUSH4 0x7CB19743 PUSH1 0xE1 SHL PUSH0 MSTORE PUSH1 0x4 DUP5 SWAP1 MSTORE PUSH1 0x24 PUSH0 REVERT JUMPDEST POP PUSH8 0x6F05B59D3B20000 DUP5 GT PUSH2 0xA6D JUMP JUMPDEST PUSH4 0xF93BC305 PUSH1 0xE0 SHL PUSH0 MSTORE PUSH1 0x4 PUSH0 REVERT JUMPDEST CALLVALUE PUSH2 0x23B JUMPI PUSH0 CALLDATASIZE PUSH1 0x3 NOT ADD SLT PUSH2 0x23B JUMPI PUSH1 0xA SLOAD PUSH1 0x40 MLOAD PUSH1 0x1 PUSH1 0x1 PUSH1 0xA0 SHL SUB SWAP1 SWAP2 AND DUP2 MSTORE PUSH1 0x20 SWAP1 RETURN JUMPDEST CALLVALUE PUSH2 0x23B JUMPI PUSH0 CALLDATASIZE PUSH1 0x3 NOT ADD SLT PUSH2 0x23B JUMPI PUSH1 0x40 MLOAD PUSH0 PUSH1 0x1 SLOAD PUSH2 0xB41 DUP2 PUSH2 0xCB2 JUMP JUMPDEST DUP1 DUP5 MSTORE SWAP1 PUSH1 0x1 DUP2 AND SWAP1 DUP2 ISZERO PUSH2 0x3C5 JUMPI POP PUSH1 0x1 EQ PUSH2 0xB68 JUMPI PUSH2 0x365 DUP4 PUSH2 0x359 DUP2 DUP6 SUB DUP3 PUSH2 0xCFE JUMP JUMPDEST PUSH1 0x1 PUSH0 SWAP1 DUP2 MSTORE PUSH32 0xB10E2D527612073B26EECDFD717E6A320CF44B4AFAC2B0732D9FCBE2B7FA0CF6 SWAP4 SWAP3 POP SWAP1 JUMPDEST DUP1 DUP3 LT PUSH2 0xBAC JUMPI POP SWAP1 SWAP2 POP DUP2 ADD PUSH1 0x20 ADD PUSH2 0x359 PUSH2 0x349 JUMP JUMPDEST SWAP2 SWAP3 PUSH1 0x1 DUP2 PUSH1 0x20 SWAP3 SLOAD DUP4 DUP6 DUP9 ADD ADD MSTORE ADD SWAP2 ADD SWAP1 SWAP3 SWAP2 PUSH2 0xB94 JUMP JUMPDEST CALLVALUE PUSH2 0x23B JUMPI PUSH1 0x40 CALLDATASIZE PUSH1 0x3 NOT ADD SLT PUSH2 0x23B JUMPI PUSH2 0xBDF PUSH2 0x425 JUMP JUMPDEST PUSH2 0xBE7 PUSH2 0xA0D JUMP JUMPDEST CALLER ISZERO PUSH2 0xC7D JUMPI PUSH1 0x1 PUSH1 0x1 PUSH1 0xA0 SHL SUB DUP3 AND SWAP2 DUP3 ISZERO PUSH2 0xC6A JUMPI DUP2 PUSH2 0xC27 PUSH2 0xC38 SWAP3 CALLER PUSH0 MSTORE PUSH1 0x5 PUSH1 0x20 MSTORE PUSH1 0x40 PUSH0 KECCAK256 SWAP1 PUSH1 0x1 DUP1 PUSH1 0xA0 SHL SUB AND PUSH0 MSTORE PUSH1 0x20 MSTORE PUSH1 0x40 PUSH0 KECCAK256 SWAP1 JUMP JUMPDEST SWAP1 PUSH1 0xFF DUP1 NOT DUP4 SLOAD AND SWAP2 ISZERO ISZERO AND OR SWAP1 SSTORE JUMP JUMPDEST PUSH1 0x40 MLOAD SWAP1 ISZERO ISZERO DUP2 MSTORE CALLER SWAP1 PUSH32 0x17307EAB39AB6107E8899845AD3D59BD9653F200F220920489CA2B5937696C31 SWAP1 PUSH1 0x20 SWAP1 LOG3 STOP JUMPDEST DUP3 PUSH4 0xB611743 PUSH1 0xE3 SHL PUSH0 MSTORE PUSH1 0x4 MSTORE PUSH1 0x24 PUSH0 REVERT JUMPDEST PUSH4 0xA9FBF51F PUSH1 0xE0 SHL PUSH0 MSTORE PUSH0 PUSH1 0x4 MSTORE PUSH1 0x24 PUSH0 REVERT JUMPDEST CALLVALUE PUSH2 0x23B JUMPI PUSH0 CALLDATASIZE PUSH1 0x3 NOT ADD SLT PUSH2 0x23B JUMPI PUSH1 0x20 PUSH1 0x40 MLOAD PUSH8 0x16345785D8A0000 DUP2 MSTORE RETURN JUMPDEST SWAP1 PUSH1 0x1 DUP3 DUP2 SHR SWAP3 AND DUP1 ISZERO PUSH2 0xCE0 JUMPI JUMPDEST PUSH1 0x20 DUP4 LT EQ PUSH2 0xCCC JUMPI JUMP JUMPDEST PUSH4 0x4E487B71 PUSH1 0xE0 SHL PUSH0 MSTORE PUSH1 0x22 PUSH1 0x4 MSTORE PUSH1 0x24 PUSH0 REVERT JUMPDEST SWAP2 PUSH1 0x7F AND SWAP2 PUSH2 0xCC1 JUMP JUMPDEST PUSH4 0x4E487B71 PUSH1 0xE0 SHL PUSH0 MSTORE PUSH1 0x41 PUSH1 0x4 MSTORE PUSH1 0x24 PUSH0 REVERT JUMPDEST SWAP1 PUSH1 0x1F DUP1 NOT SWAP2 ADD AND DUP2 ADD SWAP1 DUP2 LT PUSH8 0xFFFFFFFFFFFFFFFF DUP3 GT OR PUSH2 0xD20 JUMPI PUSH1 0x40 MSTORE JUMP JUMPDEST PUSH2 0xCEA JUMP JUMPDEST SWAP1 PUSH1 0x40 MLOAD SWAP2 DUP3 PUSH0 DUP3 SLOAD SWAP3 PUSH2 0xD38 DUP5 PUSH2 0xCB2 JUMP JUMPDEST DUP1 DUP5 MSTORE SWAP4 PUSH1 0x1 DUP2 AND SWAP1 DUP2 ISZERO PUSH2 0xDA3 JUMPI POP PUSH1 0x1 EQ PUSH2 0xD5F JUMPI JUMPDEST POP PUSH2 0xD5D SWAP3 POP SUB DUP4 PUSH2 0xCFE JUMP JUMPDEST JUMP JUMPDEST SWAP1 POP PUSH0 SWAP3 SWAP2 SWAP3 MSTORE PUSH1 0x20 PUSH0 KECCAK256 SWAP1 PUSH0 SWAP2 JUMPDEST DUP2 DUP4 LT PUSH2 0xD87 JUMPI POP POP SWAP1 PUSH1 0x20 PUSH2 0xD5D SWAP3 DUP3 ADD ADD PUSH0 PUSH2 0xD50 JUMP JUMPDEST PUSH1 0x20 SWAP2 SWAP4 POP DUP1 PUSH1 0x1 SWAP2 SLOAD DUP4 DUP6 DUP10 ADD ADD MSTORE ADD SWAP2 ADD SWAP1 SWAP2 DUP5 SWAP3 PUSH2 0xD6E JUMP JUMPDEST SWAP1 POP PUSH1 0x20 SWAP3 POP PUSH2 0xD5D SWAP5 SWAP2 POP PUSH1 0xFF NOT AND DUP3 DUP5 ADD MSTORE ISZERO ISZERO PUSH1 0x5 SHL DUP3 ADD ADD PUSH0 PUSH2 0xD50 JUMP JUMPDEST SWAP4 SWAP1 PUSH1 0xC0 SWAP6 SWAP9 SWAP8 SWAP7 SWAP4 PUSH2 0xDF4 PUSH2 0xE10 SWAP5 PUSH2 0xE02 SWAP4 PUSH1 0x1 DUP1 PUSH1 0xA0 SHL SUB AND DUP9 MSTORE PUSH1 0xE0 PUSH1 0x20 DUP10 ADD MSTORE PUSH1 0xE0 DUP9 ADD SWAP1 PUSH2 0x2DA JUMP JUMPDEST SWAP1 DUP7 DUP3 SUB PUSH1 0x40 DUP9 ADD MSTORE PUSH2 0x2DA JUMP JUMPDEST SWAP1 DUP5 DUP3 SUB PUSH1 0x60 DUP7 ADD MSTORE PUSH2 0x2DA JUMP JUMPDEST SWAP6 PUSH1 0x80 DUP4 ADD MSTORE ISZERO ISZERO PUSH1 0xA0 DUP3 ADD MSTORE ADD MSTORE JUMP JUMPDEST CALLVALUE PUSH2 0x23B JUMPI PUSH1 0x20 CALLDATASIZE PUSH1 0x3 NOT ADD SLT PUSH2 0x23B JUMPI PUSH1 0x4 CALLDATALOAD PUSH0 SWAP1 DUP2 MSTORE PUSH1 0xD PUSH1 0x20 MSTORE PUSH1 0x40 SWAP1 KECCAK256 DUP1 SLOAD PUSH1 0x1 PUSH1 0x1 PUSH1 0xA0 SHL SUB AND PUSH2 0x365 PUSH2 0xE5C PUSH1 0x1 DUP5 ADD PUSH2 0xD25 JUMP JUMPDEST SWAP3 PUSH2 0xE69 PUSH1 0x2 DUP3 ADD PUSH2 0xD25 JUMP JUMPDEST SWAP1 PUSH2 0xE76 PUSH1 0x3 DUP3 ADD PUSH2 0xD25 JUMP JUMPDEST PUSH1 0x4 DUP3 ADD SLOAD SWAP1 PUSH1 0x6 PUSH1 0xFF PUSH1 0x5 DUP6 ADD SLOAD AND SWAP4 ADD SLOAD SWAP4 PUSH1 0x40 MLOAD SWAP8 DUP9 SWAP8 DUP9 PUSH2 0xDC5 JUMP JUMPDEST PUSH1 0x40 MLOAD SWAP1 PUSH2 0xD5D PUSH1 0x80 DUP4 PUSH2 0xCFE JUMP JUMPDEST PUSH1 0x40 MLOAD SWAP1 PUSH2 0xD5D PUSH1 0xE0 DUP4 PUSH2 0xCFE JUMP JUMPDEST PUSH8 0xFFFFFFFFFFFFFFFF DUP2 GT PUSH2 0xD20 JUMPI PUSH1 0x1F ADD PUSH1 0x1F NOT AND PUSH1 0x20 ADD SWAP1 JUMP JUMPDEST SWAP3 SWAP2 SWAP3 PUSH2 0xEDC DUP3 PUSH2 0xEB4 JUMP JUMPDEST SWAP2 PUSH2 0xEEA PUSH1 0x40 MLOAD SWAP4 DUP5 PUSH2 0xCFE JUMP JUMPDEST DUP3 SWAP5 DUP2 DUP5 MSTORE DUP2 DUP4 ADD GT PUSH2 0x23B JUMPI DUP3 DUP2 PUSH1 0x20 SWAP4 DUP5 PUSH0 SWAP7 ADD CALLDATACOPY ADD ADD MSTORE JUMP JUMPDEST CALLVALUE PUSH2 0x23B JUMPI PUSH1 0x80 CALLDATASIZE PUSH1 0x3 NOT ADD SLT PUSH2 0x23B JUMPI PUSH2 0xF1F PUSH2 0x425 JUMP JUMPDEST PUSH2 0xF27 PUSH2 0x43B JUMP JUMPDEST SWAP1 PUSH1 0x44 CALLDATALOAD PUSH1 0x64 CALLDATALOAD SWAP3 PUSH8 0xFFFFFFFFFFFFFFFF DUP5 GT PUSH2 0x23B JUMPI CALLDATASIZE PUSH1 0x23 DUP6 ADD SLT ISZERO PUSH2 0x23B JUMPI PUSH2 0xF60 PUSH2 0x18 SWAP5 CALLDATASIZE SWAP1 PUSH1 0x24 DUP2 PUSH1 0x4 ADD CALLDATALOAD SWAP2 ADD PUSH2 0xED0 JUMP JUMPDEST SWAP3 PUSH2 0x775 DUP4 DUP4 DUP4 PUSH2 0x16C6 JUMP JUMPDEST CALLVALUE PUSH2 0x23B JUMPI PUSH1 0x20 CALLDATASIZE PUSH1 0x3 NOT ADD SLT PUSH2 0x23B JUMPI PUSH1 0x4 CALLDATALOAD PUSH2 0xF89 DUP2 PUSH2 0x1EDE JUMP JUMPDEST POP PUSH2 0xF9C DUP2 PUSH0 MSTORE PUSH1 0xE PUSH1 0x20 MSTORE PUSH1 0x40 PUSH0 KECCAK256 SWAP1 JUMP JUMPDEST PUSH2 0xFA5 SWAP1 PUSH2 0x1D49 JUMP JUMPDEST SWAP1 DUP2 MLOAD PUSH2 0xFBA SWAP1 PUSH0 MSTORE PUSH1 0xD PUSH1 0x20 MSTORE PUSH1 0x40 PUSH0 KECCAK256 SWAP1 JUMP JUMPDEST PUSH2 0xFC3 SWAP1 PUSH2 0x1D96 JUMP JUMPDEST SWAP1 PUSH2 0xFCD SWAP1 PUSH2 0x2132 JUMP JUMPDEST SWAP1 PUSH1 0x20 DUP2 ADD SWAP3 DUP4 MLOAD SWAP4 PUSH1 0x40 DUP4 ADD MLOAD PUSH2 0xFE4 SWAP1 PUSH2 0x22D7 JUMP JUMPDEST SWAP3 PUSH1 0x60 DUP2 ADD MLOAD SWAP2 MLOAD PUSH1 0x40 DUP5 ADD MLOAD PUSH2 0xFFA SWAP1 PUSH2 0x23AE JUMP JUMPDEST PUSH1 0x20 DUP6 ADD MLOAD SWAP1 SWAP2 SWAP1 PUSH1 0x1 PUSH1 0x1 PUSH1 0xA0 SHL SUB AND PUSH2 0x1014 SWAP1 PUSH2 0x2404 JUMP JUMPDEST SWAP3 MLOAD PUSH1 0x1 PUSH1 0x1 PUSH1 0xA0 SHL SUB AND PUSH2 0x1028 SWAP1 PUSH2 0x2404 JUMP JUMPDEST SWAP4 PUSH1 0x60 DUP7 ADD MLOAD PUSH2 0x1037 SWAP1 PUSH2 0x2132 JUMP JUMPDEST SWAP6 MLOAD PUSH2 0x1042 SWAP1 PUSH2 0x2132 JUMP JUMPDEST PUSH1 0x40 MLOAD PUSH32 0x7B226E616D65223A22536E617020417263204C6963656E736520230000000000 PUSH1 0x20 DUP3 ADD MSTORE SWAP10 DUP11 SWAP10 SWAP2 SWAP9 SWAP2 PUSH1 0x3B DUP12 ADD PUSH2 0x107E SWAP2 PUSH2 0x1E28 JUMP JUMPDEST PUSH3 0x10169 PUSH1 0xED SHL DUP2 MSTORE PUSH1 0x3 ADD PUSH2 0x1093 SWAP2 PUSH2 0x1E28 JUMP JUMPDEST PUSH2 0x88B PUSH1 0xF2 SHL DUP2 MSTORE PUSH1 0x2 ADD PUSH15 0x113232B9B1B934B83A34B7B7111D11 PUSH1 0x89 SHL DUP2 MSTORE PUSH1 0xF ADD PUSH2 0x10BF SWAP2 PUSH2 0x1E28 JUMP JUMPDEST PUSH2 0x88B PUSH1 0xF2 SHL DUP2 MSTORE PUSH1 0x2 ADD PUSH9 0x1134B6B0B3B2911D11 PUSH1 0xB9 SHL DUP2 MSTORE PUSH1 0x9 ADD PUSH2 0x10E5 SWAP2 PUSH2 0x1E28 JUMP JUMPDEST PUSH2 0x88B PUSH1 0xF2 SHL DUP2 MSTORE PUSH1 0x2 ADD PUSH14 0x2261747472696275746573223A5B PUSH1 0x90 SHL DUP2 MSTORE PUSH1 0xE ADD PUSH32 0x7B2274726169745F74797065223A2250686F746F222C2276616C7565223A2200 DUP2 MSTORE PUSH1 0x1F ADD PUSH2 0x1136 SWAP2 PUSH2 0x1E28 JUMP JUMPDEST PUSH3 0x89F4B PUSH1 0xEA SHL DUP2 MSTORE PUSH1 0x3 ADD PUSH32 0x7B2274726169745F74797065223A224C6963656E73652054797065222C227661 DUP2 MSTORE PUSH32 0x6C7565223A225374616E6461726420526F79616C74792D46726565227D2C0000 PUSH1 0x20 DUP3 ADD MSTORE PUSH1 0x3E ADD PUSH32 0x7B2274726169745F74797065223A2250726963652050616964222C2264697370 DUP2 MSTORE PUSH32 0x6C61795F74797065223A226E756D626572222C2276616C7565223A2200000000 PUSH1 0x20 DUP3 ADD MSTORE PUSH1 0x3C ADD PUSH2 0x11E3 SWAP2 PUSH2 0x1E28 JUMP JUMPDEST PUSH3 0x89F4B PUSH1 0xEA SHL DUP2 MSTORE PUSH1 0x3 ADD PUSH32 0x7B2274726169745F74797065223A224275796572222C2276616C7565223A2200 DUP2 MSTORE PUSH1 0x1F ADD PUSH2 0x121E SWAP2 PUSH2 0x1E28 JUMP JUMPDEST PUSH3 0x89F4B PUSH1 0xEA SHL DUP2 MSTORE PUSH1 0x3 ADD PUSH32 0x7B2274726169745F74797065223A2250686F746F67726170686572222C227661 DUP2 MSTORE PUSH6 0x363AB2911D11 PUSH1 0xD1 SHL PUSH1 0x20 DUP3 ADD MSTORE PUSH1 0x26 ADD PUSH2 0x1268 SWAP2 PUSH2 0x1E28 JUMP JUMPDEST PUSH3 0x89F4B PUSH1 0xEA SHL DUP2 MSTORE PUSH1 0x3 ADD PUSH32 0x7B2274726169745F74797065223A22507572636861736564204174222C226469 DUP2 MSTORE PUSH32 0x73706C61795F74797065223A2264617465222C2276616C7565223A0000000000 PUSH1 0x20 DUP3 ADD MSTORE PUSH1 0x3B ADD PUSH2 0x12C9 SWAP2 PUSH2 0x1E28 JUMP JUMPDEST PUSH2 0x1F4B PUSH1 0xF2 SHL DUP2 MSTORE PUSH1 0x2 ADD PUSH32 0x7B2274726169745F74797065223A2250686F746F204944222C2276616C756522 DUP2 MSTORE PUSH2 0x1D11 PUSH1 0xF1 SHL PUSH1 0x20 DUP3 ADD MSTORE PUSH1 0x22 ADD PUSH2 0x130E SWAP2 PUSH2 0x1E28 JUMP JUMPDEST PUSH2 0x227D PUSH1 0xF0 SHL DUP2 MSTORE PUSH1 0x2 ADD PUSH2 0x5D7D PUSH1 0xF0 SHL DUP2 MSTORE PUSH1 0x2 ADD SUB PUSH1 0x1F NOT DUP2 ADD DUP3 MSTORE PUSH2 0x1336 SWAP1 DUP3 PUSH2 0xCFE JUMP JUMPDEST PUSH2 0x133F SWAP1 PUSH2 0x27A6 JUMP JUMPDEST PUSH1 0x40 MLOAD PUSH32 0x646174613A6170706C69636174696F6E2F6A736F6E3B6261736536342C000000 PUSH1 0x20 DUP3 ADD MSTORE SWAP1 DUP2 SWAP1 PUSH1 0x3D DUP3 ADD PUSH2 0x1378 SWAP2 PUSH2 0x1E28 JUMP JUMPDEST SUB PUSH1 0x1F NOT DUP2 ADD DUP3 MSTORE PUSH2 0x138A SWAP1 DUP3 PUSH2 0xCFE JUMP JUMPDEST PUSH1 0x40 MLOAD PUSH2 0x365 DUP2 SWAP3 DUP3 PUSH2 0x2FE JUMP JUMPDEST PUSH1 0x20 CALLDATASIZE PUSH1 0x3 NOT ADD SLT PUSH2 0x23B JUMPI PUSH1 0x4 CALLDATALOAD PUSH1 0x2 PUSH32 0x9B779B17422D0DF92223018B32B4D1FA46E071723D6817E2486D003BECC55F00 SLOAD EQ PUSH2 0x15D5 JUMPI PUSH1 0x2 PUSH32 0x9B779B17422D0DF92223018B32B4D1FA46E071723D6817E2486D003BECC55F00 SSTORE PUSH2 0x1406 DUP2 PUSH0 MSTORE PUSH1 0xD PUSH1 0x20 MSTORE PUSH1 0x40 PUSH0 KECCAK256 SWAP1 JUMP JUMPDEST DUP1 SLOAD SWAP1 SWAP2 SWAP1 PUSH1 0x1 PUSH1 0x1 PUSH1 0xA0 SHL SUB AND ISZERO PUSH2 0x15C4 JUMPI PUSH2 0x142E PUSH2 0x142A PUSH1 0x5 DUP5 ADD SLOAD PUSH1 0xFF AND SWAP1 JUMP JUMPDEST ISZERO SWAP1 JUMP JUMPDEST PUSH2 0x15B2 JUMPI PUSH1 0x4 DUP3 ADD SLOAD DUP1 CALLVALUE SUB PUSH2 0x159C JUMPI POP PUSH2 0x144D PUSH1 0x1 PUSH1 0xC SLOAD ADD PUSH1 0xC SSTORE JUMP JUMPDEST PUSH2 0x152D PUSH1 0xC SLOAD SWAP3 PUSH2 0x14C9 PUSH2 0x145F PUSH2 0xE96 JUMP JUMPDEST DUP5 DUP2 MSTORE CALLER PUSH1 0x20 DUP3 ADD MSTORE CALLVALUE PUSH1 0x40 DUP3 ADD MSTORE TIMESTAMP PUSH1 0x60 DUP3 ADD MSTORE PUSH2 0x1486 DUP7 PUSH0 MSTORE PUSH1 0xE PUSH1 0x20 MSTORE PUSH1 0x40 PUSH0 KECCAK256 SWAP1 JUMP JUMPDEST DUP2 MLOAD DUP2 SSTORE PUSH1 0x20 DUP3 ADD MLOAD PUSH1 0x1 DUP3 ADD DUP1 SLOAD PUSH1 0x1 PUSH1 0x1 PUSH1 0xA0 SHL SUB NOT AND PUSH1 0x1 PUSH1 0x1 PUSH1 0xA0 SHL SUB SWAP3 SWAP1 SWAP3 AND SWAP2 SWAP1 SWAP2 OR SWAP1 SSTORE SWAP1 PUSH1 0x3 SWAP1 PUSH1 0x60 SWAP1 PUSH1 0x40 DUP2 ADD MLOAD PUSH1 0x2 DUP6 ADD SSTORE ADD MLOAD SWAP2 ADD SSTORE JUMP JUMPDEST PUSH2 0x14D3 DUP5 CALLER PUSH2 0x24B0 JUMP JUMPDEST DUP1 SLOAD PUSH1 0x1 PUSH1 0x1 PUSH1 0xA0 SHL SUB AND PUSH0 SWAP1 DUP2 MSTORE PUSH1 0xF PUSH1 0x20 MSTORE PUSH1 0x40 SWAP1 KECCAK256 PUSH2 0x14F6 CALLVALUE DUP3 SLOAD PUSH2 0x1E56 JUMP JUMPDEST SWAP1 SSTORE PUSH2 0x1520 PUSH0 DUP1 DUP1 DUP1 CALLVALUE PUSH2 0x1510 DUP8 SLOAD PUSH1 0x1 DUP1 PUSH1 0xA0 SHL SUB AND SWAP1 JUMP JUMPDEST GAS CALL PUSH2 0x151A PUSH2 0x1E63 JUMP JUMPDEST POP PUSH2 0x1E92 JUMP JUMPDEST SLOAD PUSH1 0x1 PUSH1 0x1 PUSH1 0xA0 SHL SUB AND SWAP1 JUMP JUMPDEST PUSH1 0x40 DUP1 MLOAD PUSH1 0x1 PUSH1 0x1 PUSH1 0xA0 SHL SUB SWAP3 SWAP1 SWAP3 AND DUP3 MSTORE CALLVALUE PUSH1 0x20 DUP4 ADD MSTORE TIMESTAMP SWAP1 DUP3 ADD MSTORE CALLER SWAP3 SWAP1 PUSH32 0x4AF259BB4501A83279551A21F5BAED67E463DE6A2CE26106DAFDBC282B678C9 SWAP1 PUSH1 0x60 SWAP1 LOG4 PUSH2 0x18 PUSH1 0x1 PUSH32 0x9B779B17422D0DF92223018B32B4D1FA46E071723D6817E2486D003BECC55F00 SSTORE JUMP JUMPDEST PUSH4 0xD35E921 PUSH1 0xE0 SHL PUSH0 MSTORE PUSH1 0x4 MSTORE CALLVALUE PUSH1 0x24 MSTORE PUSH1 0x44 PUSH0 REVERT JUMPDEST PUSH4 0x5BF24839 PUSH1 0xE0 SHL PUSH0 MSTORE PUSH1 0x4 MSTORE PUSH1 0x24 PUSH0 REVERT JUMPDEST PUSH3 0x90F0B1 PUSH1 0xE5 SHL PUSH0 MSTORE PUSH1 0x4 MSTORE PUSH1 0x24 PUSH0 REVERT JUMPDEST PUSH4 0x3EE5AEB5 PUSH1 0xE0 SHL PUSH0 MSTORE PUSH1 0x4 PUSH0 REVERT JUMPDEST CALLVALUE PUSH2 0x23B JUMPI PUSH1 0x40 CALLDATASIZE PUSH1 0x3 NOT ADD SLT PUSH2 0x23B JUMPI PUSH1 0x20 PUSH1 0xFF PUSH2 0x1634 PUSH2 0x1604 PUSH2 0x425 JUMP JUMPDEST PUSH2 0x160C PUSH2 0x43B JUMP JUMPDEST PUSH1 0x1 PUSH1 0x1 PUSH1 0xA0 SHL SUB SWAP2 DUP3 AND PUSH0 SWAP1 DUP2 MSTORE PUSH1 0x5 DUP7 MSTORE PUSH1 0x40 DUP1 DUP3 KECCAK256 SWAP3 SWAP1 SWAP4 AND DUP2 MSTORE PUSH1 0x20 SWAP2 SWAP1 SWAP2 MSTORE KECCAK256 SWAP1 JUMP JUMPDEST SLOAD AND PUSH1 0x40 MLOAD SWAP1 ISZERO ISZERO DUP2 MSTORE RETURN JUMPDEST CALLVALUE PUSH2 0x23B JUMPI PUSH1 0x20 CALLDATASIZE PUSH1 0x3 NOT ADD SLT PUSH2 0x23B JUMPI PUSH2 0x1659 PUSH2 0x425 JUMP JUMPDEST PUSH2 0x1661 PUSH2 0x1F12 JUMP JUMPDEST PUSH1 0x1 PUSH1 0x1 PUSH1 0xA0 SHL SUB AND DUP1 ISZERO PUSH2 0x16B3 JUMPI PUSH1 0xA DUP1 SLOAD PUSH1 0x1 PUSH1 0x1 PUSH1 0xA0 SHL SUB NOT DUP2 AND DUP4 OR SWAP1 SWAP2 SSTORE PUSH1 0x1 PUSH1 0x1 PUSH1 0xA0 SHL SUB AND PUSH32 0x8BE0079C531659141344CD1FD0A4F28419497F9722A3DAAFE3B4186F6B6457E0 PUSH0 DUP1 LOG3 STOP JUMPDEST PUSH4 0x1E4FBDF7 PUSH1 0xE0 SHL PUSH0 MSTORE PUSH0 PUSH1 0x4 MSTORE PUSH1 0x24 PUSH0 REVERT JUMPDEST PUSH1 0x1 PUSH1 0x1 PUSH1 0xA0 SHL SUB DUP3 AND SWAP3 SWAP2 DUP4 ISZERO PUSH2 0x180E JUMPI PUSH0 DUP4 DUP2 MSTORE PUSH1 0x2 PUSH1 0x20 MSTORE PUSH1 0x40 SWAP1 KECCAK256 SLOAD PUSH1 0x1 PUSH1 0x1 PUSH1 0xA0 SHL SUB AND SWAP1 CALLER PUSH2 0x17FE JUMPI JUMPDEST PUSH1 0x1 PUSH1 0x1 PUSH1 0xA0 SHL SUB DUP3 AND SWAP5 DUP5 SWAP1 DUP7 ISZERO DUP1 ISZERO PUSH2 0x17D2 JUMPI JUMPDEST PUSH1 0x1 PUSH1 0x1 PUSH1 0xA0 SHL SUB DUP5 AND PUSH0 SWAP1 DUP2 MSTORE PUSH1 0x3 PUSH1 0x20 MSTORE PUSH1 0x40 SWAP1 KECCAK256 PUSH1 0x1 DUP2 SLOAD ADD SWAP1 SSTORE PUSH2 0x1740 DUP5 PUSH2 0x4D3 DUP6 PUSH0 MSTORE PUSH1 0x2 PUSH1 0x20 MSTORE PUSH1 0x40 PUSH0 KECCAK256 SWAP1 JUMP JUMPDEST DUP3 DUP3 DUP10 PUSH32 0xDDF252AD1BE2C89B69C2B068FC378DAA952BA7F163C4A11628F55A4DF523B3EF PUSH0 DUP1 LOG4 ISZERO PUSH2 0x17BC JUMPI PUSH2 0x1775 DUP3 PUSH2 0x267F JUMP JUMPDEST DUP7 SUB PUSH2 0x17AC JUMPI JUMPDEST POP POP POP PUSH1 0x1 PUSH1 0x1 PUSH1 0xA0 SHL SUB AND DUP1 DUP4 SUB PUSH2 0x1794 JUMPI POP POP POP JUMP JUMPDEST PUSH4 0x64283D7B PUSH1 0xE0 SHL PUSH0 MSTORE PUSH1 0x4 MSTORE PUSH1 0x24 MSTORE PUSH1 0x44 MSTORE PUSH1 0x64 PUSH0 REVERT JUMPDEST PUSH2 0x17B5 SWAP2 PUSH2 0x26DB JUMP JUMPDEST PUSH0 DUP4 PUSH2 0x177C JUMP JUMPDEST DUP7 DUP2 EQ PUSH2 0x1775 JUMPI PUSH2 0x17CD DUP3 DUP6 PUSH2 0x25FC JUMP JUMPDEST PUSH2 0x1775 JUMP JUMPDEST PUSH2 0x17DB DUP4 PUSH2 0x25DA JUMP JUMPDEST PUSH1 0x1 PUSH1 0x1 PUSH1 0xA0 SHL SUB DUP6 AND PUSH0 SWAP1 DUP2 MSTORE PUSH1 0x3 PUSH1 0x20 MSTORE PUSH1 0x40 SWAP1 KECCAK256 DUP1 SLOAD PUSH0 NOT ADD SWAP1 SSTORE PUSH2 0x170C JUMP JUMPDEST PUSH2 0x1809 DUP5 CALLER DUP5 PUSH2 0x28C5 JUMP JUMPDEST PUSH2 0x16F6 JUMP JUMPDEST PUSH4 0x32505749 PUSH1 0xE1 SHL PUSH0 MSTORE PUSH0 PUSH1 0x4 MSTORE PUSH1 0x24 PUSH0 REVERT JUMPDEST PUSH1 0x1F DUP3 GT PUSH2 0x182E JUMPI POP POP POP JUMP JUMPDEST PUSH0 MSTORE PUSH1 0x20 PUSH0 KECCAK256 SWAP1 PUSH1 0x20 PUSH1 0x1F DUP5 ADD PUSH1 0x5 SHR DUP4 ADD SWAP4 LT PUSH2 0x1866 JUMPI JUMPDEST PUSH1 0x1F ADD PUSH1 0x5 SHR ADD SWAP1 JUMPDEST DUP2 DUP2 LT PUSH2 0x185B JUMPI POP POP JUMP JUMPDEST PUSH0 DUP2 SSTORE PUSH1 0x1 ADD PUSH2 0x1850 JUMP JUMPDEST SWAP1 SWAP2 POP DUP2 SWAP1 PUSH2 0x1847 JUMP JUMPDEST SWAP2 SWAP1 SWAP2 DUP3 MLOAD PUSH8 0xFFFFFFFFFFFFFFFF DUP2 GT PUSH2 0xD20 JUMPI PUSH2 0x1898 DUP2 PUSH2 0x1892 DUP5 SLOAD PUSH2 0xCB2 JUMP JUMPDEST DUP5 PUSH2 0x1821 JUMP JUMPDEST PUSH1 0x20 PUSH1 0x1F DUP3 GT PUSH1 0x1 EQ PUSH2 0x18D7 JUMPI DUP2 SWAP1 PUSH2 0x18C8 SWAP4 SWAP5 SWAP6 PUSH0 SWAP3 PUSH2 0x18CC JUMPI JUMPDEST POP POP DUP2 PUSH1 0x1 SHL SWAP2 PUSH0 NOT SWAP1 PUSH1 0x3 SHL SHR NOT AND OR SWAP1 JUMP JUMPDEST SWAP1 SSTORE JUMP JUMPDEST ADD MLOAD SWAP1 POP PUSH0 DUP1 PUSH2 0x18B4 JUMP JUMPDEST PUSH1 0x1F NOT DUP3 AND SWAP1 PUSH2 0x18EA DUP5 PUSH0 MSTORE PUSH1 0x20 PUSH0 KECCAK256 SWAP1 JUMP JUMPDEST SWAP2 PUSH0 JUMPDEST DUP2 DUP2 LT PUSH2 0x1924 JUMPI POP SWAP6 DUP4 PUSH1 0x1 SWAP6 SWAP7 SWAP8 LT PUSH2 0x190C JUMPI JUMPDEST POP POP POP DUP2 SHL ADD SWAP1 SSTORE JUMP JUMPDEST ADD MLOAD PUSH0 NOT PUSH1 0xF8 DUP5 PUSH1 0x3 SHL AND SHR NOT AND SWAP1 SSTORE PUSH0 DUP1 DUP1 PUSH2 0x1902 JUMP JUMPDEST SWAP2 SWAP3 PUSH1 0x20 PUSH1 0x1 DUP2 SWAP3 DUP7 DUP12 ADD MLOAD DUP2 SSTORE ADD SWAP5 ADD SWAP3 ADD PUSH2 0x18ED JUMP JUMPDEST DUP2 MLOAD DUP2 SLOAD PUSH1 0x1 PUSH1 0x1 PUSH1 0xA0 SHL SUB NOT AND PUSH1 0x1 PUSH1 0x1 PUSH1 0xA0 SHL SUB SWAP2 SWAP1 SWAP2 AND OR DUP2 SSTORE SWAP1 PUSH1 0x1 DUP3 ADD PUSH1 0x20 DUP3 ADD MLOAD DUP1 MLOAD SWAP1 PUSH8 0xFFFFFFFFFFFFFFFF DUP3 GT PUSH2 0xD20 JUMPI PUSH2 0x1989 DUP3 PUSH2 0x1983 DUP6 SLOAD PUSH2 0xCB2 JUMP JUMPDEST DUP6 PUSH2 0x1821 JUMP JUMPDEST PUSH1 0x20 SWAP1 PUSH1 0x1F DUP4 GT PUSH1 0x1 EQ PUSH2 0x1A19 JUMPI DUP3 PUSH1 0x6 SWAP6 SWAP4 PUSH1 0xC0 SWAP6 SWAP4 PUSH2 0x19BE SWAP4 PUSH0 SWAP3 PUSH2 0x18CC JUMPI POP POP DUP2 PUSH1 0x1 SHL SWAP2 PUSH0 NOT SWAP1 PUSH1 0x3 SHL SHR NOT AND OR SWAP1 JUMP JUMPDEST SWAP1 SSTORE JUMPDEST PUSH2 0x19D2 PUSH1 0x40 DUP3 ADD MLOAD PUSH1 0x2 DUP7 ADD PUSH2 0x1870 JUMP JUMPDEST PUSH2 0x19E3 PUSH1 0x60 DUP3 ADD MLOAD PUSH1 0x3 DUP7 ADD PUSH2 0x1870 JUMP JUMPDEST PUSH1 0x80 DUP2 ADD MLOAD PUSH1 0x4 DUP6 ADD SSTORE PUSH2 0x1A12 PUSH2 0x19FD PUSH1 0xA0 DUP4 ADD MLOAD ISZERO ISZERO SWAP1 JUMP JUMPDEST PUSH1 0x5 DUP7 ADD SWAP1 PUSH1 0xFF DUP1 NOT DUP4 SLOAD AND SWAP2 ISZERO ISZERO AND OR SWAP1 SSTORE JUMP JUMPDEST ADD MLOAD SWAP2 ADD SSTORE JUMP JUMPDEST SWAP1 PUSH1 0x1F NOT DUP4 AND SWAP2 PUSH2 0x1A2D DUP6 PUSH0 MSTORE PUSH1 0x20 PUSH0 KECCAK256 SWAP1 JUMP JUMPDEST SWAP3 PUSH0 JUMPDEST DUP2 DUP2 LT PUSH2 0x1A71 JUMPI POP SWAP3 PUSH1 0x1 SWAP3 DUP6 SWAP3 PUSH1 0x6 SWAP9 SWAP7 PUSH1 0xC0 SWAP9 SWAP7 LT PUSH2 0x1A59 JUMPI JUMPDEST POP POP POP DUP2 SHL ADD SWAP1 SSTORE PUSH2 0x19C1 JUMP JUMPDEST ADD MLOAD PUSH0 NOT PUSH1 0xF8 DUP5 PUSH1 0x3 SHL AND SHR NOT AND SWAP1 SSTORE PUSH0 DUP1 DUP1 PUSH2 0x1A4C JUMP JUMPDEST SWAP3 SWAP4 PUSH1 0x20 PUSH1 0x1 DUP2 SWAP3 DUP8 DUP7 ADD MLOAD DUP2 SSTORE ADD SWAP6 ADD SWAP4 ADD PUSH2 0x1A30 JUMP JUMPDEST SWAP1 DUP1 PUSH1 0x20 SWAP4 SWAP3 DUP2 DUP5 MSTORE DUP5 DUP5 ADD CALLDATACOPY PUSH0 DUP3 DUP3 ADD DUP5 ADD MSTORE PUSH1 0x1F ADD PUSH1 0x1F NOT AND ADD ADD SWAP1 JUMP JUMPDEST SWAP1 PUSH2 0x1AC3 SWAP1 PUSH2 0x30F SWAP7 SWAP5 SWAP6 SWAP4 PUSH1 0x60 DUP5 MSTORE PUSH1 0x60 DUP5 ADD SWAP2 PUSH2 0x1A89 JUMP JUMPDEST SWAP4 PUSH1 0x20 DUP3 ADD MSTORE PUSH1 0x40 DUP2 DUP6 SUB SWAP2 ADD MSTORE PUSH2 0x1A89 JUMP JUMPDEST SWAP5 SWAP3 SWAP7 SWAP6 SWAP2 SWAP4 SWAP7 DUP2 ISZERO PUSH2 0x1C09 JUMPI DUP4 ISZERO PUSH2 0x1BFA JUMPI PUSH8 0x16345785D8A0000 DUP4 LT DUP1 ISZERO PUSH2 0x1BE9 JUMPI JUMPDEST PUSH2 0x1BD5 JUMPI PUSH1 0xB SLOAD SWAP4 PUSH2 0x2710 DUP6 LT ISZERO PUSH2 0x1BC6 JUMPI PUSH2 0x1B6E SWAP9 PUSH2 0x1BB3 PUSH2 0x1BC1 SWAP4 PUSH2 0x1B45 PUSH1 0x1 PUSH32 0xC5599502EF7E08DC858DB3591620B575377AF375FF511BF863940D8EA1E4D831 SWAP10 ADD PUSH1 0xB SSTORE JUMP JUMPDEST PUSH1 0xB SLOAD SWAP12 DUP13 SWAP10 PUSH2 0x1B53 PUSH2 0xEA5 JUMP JUMPDEST CALLER DUP2 MSTORE SWAP3 PUSH2 0x1B62 CALLDATASIZE DUP11 DUP16 PUSH2 0xED0 JUMP JUMPDEST PUSH1 0x20 DUP6 ADD MSTORE CALLDATASIZE SWAP2 PUSH2 0xED0 JUMP JUMPDEST PUSH1 0x40 DUP3 ADD MSTORE PUSH2 0x1B7E CALLDATASIZE DUP6 DUP6 PUSH2 0xED0 JUMP JUMPDEST PUSH1 0x60 DUP3 ADD MSTORE DUP7 PUSH1 0x80 DUP3 ADD MSTORE PUSH2 0x1B96 PUSH1 0xA0 DUP3 ADD PUSH1 0x1 SWAP1 MSTORE JUMP JUMPDEST TIMESTAMP PUSH1 0xC0 DUP3 ADD MSTORE PUSH2 0x1BAE DUP10 PUSH0 MSTORE PUSH1 0xD PUSH1 0x20 MSTORE PUSH1 0x40 PUSH0 KECCAK256 SWAP1 JUMP JUMPDEST PUSH2 0x193C JUMP JUMPDEST PUSH1 0x40 MLOAD SWAP5 DUP6 SWAP5 CALLER SWAP10 DUP7 PUSH2 0x1AA9 JUMP JUMPDEST SUB SWAP1 LOG3 JUMP JUMPDEST PUSH4 0xC42489FB PUSH1 0xE0 SHL PUSH0 MSTORE PUSH1 0x4 PUSH0 REVERT JUMPDEST PUSH4 0x7CB19743 PUSH1 0xE1 SHL PUSH0 MSTORE PUSH1 0x4 DUP4 SWAP1 MSTORE PUSH1 0x24 PUSH0 REVERT JUMPDEST POP PUSH8 0x6F05B59D3B20000 DUP4 GT PUSH2 0x1AFB JUMP JUMPDEST PUSH4 0x26F93FD5 PUSH1 0xE2 SHL PUSH0 MSTORE PUSH1 0x4 PUSH0 REVERT JUMPDEST PUSH4 0x52DDCDEF PUSH1 0xE1 SHL PUSH0 MSTORE PUSH1 0x4 PUSH0 REVERT JUMPDEST PUSH2 0x1C21 DUP2 PUSH2 0x1D18 JUMP JUMPDEST DUP3 LT ISZERO PUSH2 0x1C49 JUMPI PUSH1 0x1 DUP1 PUSH1 0xA0 SHL SUB AND PUSH0 MSTORE PUSH1 0x6 PUSH1 0x20 MSTORE PUSH1 0x40 PUSH0 KECCAK256 SWAP1 PUSH0 MSTORE PUSH1 0x20 MSTORE PUSH1 0x40 PUSH0 KECCAK256 SLOAD SWAP1 JUMP JUMPDEST PUSH4 0x295F44F7 PUSH1 0xE2 SHL PUSH0 MSTORE PUSH1 0x1 DUP1 PUSH1 0xA0 SHL SUB AND PUSH1 0x4 MSTORE PUSH1 0x24 MSTORE PUSH1 0x44 PUSH0 REVERT JUMPDEST PUSH1 0x40 MLOAD SWAP1 PUSH2 0x1C75 PUSH1 0x20 DUP4 PUSH2 0xCFE JUMP JUMPDEST PUSH0 DUP3 MSTORE JUMP JUMPDEST PUSH4 0x4E487B71 PUSH1 0xE0 SHL PUSH0 MSTORE PUSH1 0x32 PUSH1 0x4 MSTORE PUSH1 0x24 PUSH0 REVERT JUMPDEST PUSH8 0xFFFFFFFFFFFFFFFF DUP2 GT PUSH2 0xD20 JUMPI PUSH1 0x5 SHL PUSH1 0x20 ADD SWAP1 JUMP JUMPDEST SWAP1 PUSH2 0x1CB0 DUP3 PUSH2 0x1C8E JUMP JUMPDEST PUSH2 0x1CBD PUSH1 0x40 MLOAD SWAP2 DUP3 PUSH2 0xCFE JUMP JUMPDEST DUP3 DUP2 MSTORE DUP1 SWAP3 PUSH2 0x1CCE PUSH1 0x1F NOT SWAP2 PUSH2 0x1C8E JUMP JUMPDEST ADD SWAP1 PUSH1 0x20 CALLDATASIZE SWAP2 ADD CALLDATACOPY JUMP JUMPDEST DUP1 MLOAD DUP3 LT ISZERO PUSH2 0x1CEC JUMPI PUSH1 0x20 SWAP2 PUSH1 0x5 SHL ADD ADD SWAP1 JUMP JUMPDEST PUSH2 0x1C7A JUMP JUMPDEST PUSH4 0x4E487B71 PUSH1 0xE0 SHL PUSH0 MSTORE PUSH1 0x11 PUSH1 0x4 MSTORE PUSH1 0x24 PUSH0 REVERT JUMPDEST PUSH0 NOT DUP2 EQ PUSH2 0x1D13 JUMPI PUSH1 0x1 ADD SWAP1 JUMP JUMPDEST PUSH2 0x1CF1 JUMP JUMPDEST PUSH1 0x1 PUSH1 0x1 PUSH1 0xA0 SHL SUB AND DUP1 ISZERO PUSH2 0x1D36 JUMPI PUSH0 MSTORE PUSH1 0x3 PUSH1 0x20 MSTORE PUSH1 0x40 PUSH0 KECCAK256 SLOAD SWAP1 JUMP JUMPDEST PUSH4 0x22718AD9 PUSH1 0xE2 SHL PUSH0 MSTORE PUSH0 PUSH1 0x4 MSTORE PUSH1 0x24 PUSH0 REVERT JUMPDEST SWAP1 PUSH1 0x40 MLOAD PUSH1 0x80 DUP2 ADD DUP2 DUP2 LT PUSH8 0xFFFFFFFFFFFFFFFF DUP3 GT OR PUSH2 0xD20 JUMPI PUSH1 0x40 SWAP1 DUP2 MSTORE DUP4 SLOAD DUP3 MSTORE PUSH1 0x1 DUP5 ADD SLOAD PUSH1 0x1 PUSH1 0x1 PUSH1 0xA0 SHL SUB AND PUSH1 0x20 DUP4 ADD MSTORE PUSH1 0x2 DUP5 ADD SLOAD SWAP1 DUP3 ADD MSTORE PUSH1 0x3 SWAP1 SWAP3 ADD SLOAD PUSH1 0x60 DUP4 ADD MSTORE JUMP JUMPDEST SWAP1 PUSH1 0x40 MLOAD PUSH1 0xE0 DUP2 ADD DUP2 DUP2 LT PUSH8 0xFFFFFFFFFFFFFFFF DUP3 GT OR PUSH2 0xD20 JUMPI PUSH1 0x40 MSTORE DUP3 SLOAD PUSH1 0x1 PUSH1 0x1 PUSH1 0xA0 SHL SUB AND DUP2 MSTORE SWAP2 DUP3 SWAP1 PUSH1 0xC0 SWAP1 PUSH1 0x6 SWAP1 PUSH2 0x1DD6 PUSH1 0x1 DUP3 ADD PUSH2 0xD25 JUMP JUMPDEST PUSH1 0x20 DUP6 ADD MSTORE PUSH2 0x1DE7 PUSH1 0x2 DUP3 ADD PUSH2 0xD25 JUMP JUMPDEST PUSH1 0x40 DUP6 ADD MSTORE PUSH2 0x1DF8 PUSH1 0x3 DUP3 ADD PUSH2 0xD25 JUMP JUMPDEST PUSH1 0x60 DUP6 ADD MSTORE PUSH1 0x4 DUP2 ADD SLOAD PUSH1 0x80 DUP6 ADD MSTORE PUSH2 0x1E21 PUSH2 0x1E18 PUSH1 0x5 DUP4 ADD SLOAD PUSH1 0xFF AND SWAP1 JUMP JUMPDEST ISZERO ISZERO PUSH1 0xA0 DUP7 ADD MSTORE JUMP JUMPDEST ADD SLOAD SWAP2 ADD MSTORE JUMP JUMPDEST DUP1 MLOAD SWAP2 SWAP1 DUP3 SWAP1 PUSH1 0x20 ADD DUP3 MCOPY ADD PUSH0 DUP2 MSTORE SWAP1 JUMP JUMPDEST SWAP1 PUSH1 0x2 DUP3 ADD DUP1 SWAP3 GT PUSH2 0x1D13 JUMPI JUMP JUMPDEST SWAP1 PUSH1 0x1 DUP3 ADD DUP1 SWAP3 GT PUSH2 0x1D13 JUMPI JUMP JUMPDEST SWAP2 SWAP1 DUP3 ADD DUP1 SWAP3 GT PUSH2 0x1D13 JUMPI JUMP JUMPDEST RETURNDATASIZE ISZERO PUSH2 0x1E8D JUMPI RETURNDATASIZE SWAP1 PUSH2 0x1E74 DUP3 PUSH2 0xEB4 JUMP JUMPDEST SWAP2 PUSH2 0x1E82 PUSH1 0x40 MLOAD SWAP4 DUP5 PUSH2 0xCFE JUMP JUMPDEST DUP3 MSTORE RETURNDATASIZE PUSH0 PUSH1 0x20 DUP5 ADD RETURNDATACOPY JUMP JUMPDEST PUSH1 0x60 SWAP1 JUMP JUMPDEST ISZERO PUSH2 0x1E99 JUMPI JUMP JUMPDEST PUSH1 0x40 MLOAD PUSH3 0x461BCD PUSH1 0xE5 SHL DUP2 MSTORE PUSH1 0x20 PUSH1 0x4 DUP3 ADD MSTORE PUSH1 0x1F PUSH1 0x24 DUP3 ADD MSTORE PUSH32 0x5472616E7366657220746F2070686F746F67726170686572206661696C656400 PUSH1 0x44 DUP3 ADD MSTORE PUSH1 0x64 SWAP1 REVERT JUMPDEST PUSH0 DUP2 DUP2 MSTORE PUSH1 0x2 PUSH1 0x20 MSTORE PUSH1 0x40 SWAP1 KECCAK256 SLOAD PUSH1 0x1 PUSH1 0x1 PUSH1 0xA0 SHL SUB AND SWAP1 DUP2 ISZERO PUSH2 0x1F00 JUMPI POP SWAP1 JUMP JUMPDEST PUSH4 0x7E273289 PUSH1 0xE0 SHL PUSH0 MSTORE PUSH1 0x4 MSTORE PUSH1 0x24 PUSH0 REVERT JUMPDEST PUSH1 0xA SLOAD PUSH1 0x1 PUSH1 0x1 PUSH1 0xA0 SHL SUB AND CALLER SUB PUSH2 0x1F26 JUMPI JUMP JUMPDEST PUSH4 0x118CDAA7 PUSH1 0xE0 SHL PUSH0 MSTORE CALLER PUSH1 0x4 MSTORE PUSH1 0x24 PUSH0 REVERT JUMPDEST SWAP1 DUP2 PUSH1 0x20 SWAP2 SUB SLT PUSH2 0x23B JUMPI MLOAD PUSH2 0x30F DUP2 PUSH2 0x23F JUMP JUMPDEST PUSH1 0x1 PUSH1 0x1 PUSH1 0xA0 SHL SUB SWAP2 DUP3 AND DUP2 MSTORE SWAP2 AND PUSH1 0x20 DUP3 ADD MSTORE PUSH1 0x40 DUP2 ADD SWAP2 SWAP1 SWAP2 MSTORE PUSH1 0x80 PUSH1 0x60 DUP3 ADD DUP2 SWAP1 MSTORE PUSH2 0x30F SWAP3 SWAP2 ADD SWAP1 PUSH2 0x2DA JUMP JUMPDEST SWAP1 SWAP3 DUP4 EXTCODESIZE PUSH2 0x1F8E JUMPI JUMPDEST POP POP POP POP JUMP JUMPDEST PUSH1 0x40 MLOAD PUSH4 0xA85BD01 PUSH1 0xE1 SHL DUP2 MSTORE SWAP3 PUSH1 0x20 SWAP3 DUP5 SWAP3 DUP4 SWAP3 PUSH2 0x1FB2 SWAP3 PUSH0 SWAP1 PUSH1 0x4 DUP7 ADD PUSH2 0x1F4E JUMP JUMPDEST SUB DUP2 PUSH0 PUSH1 0x1 PUSH1 0x1 PUSH1 0xA0 SHL SUB DUP8 AND GAS CALL PUSH0 SWAP2 DUP2 PUSH2 0x203F JUMPI JUMPDEST POP PUSH2 0x2003 JUMPI POP PUSH2 0x1FD7 PUSH2 0x1E63 JUMP JUMPDEST DUP1 MLOAD SWAP2 SWAP1 DUP3 PUSH2 0x1FFC JUMPI PUSH4 0x32505749 PUSH1 0xE1 SHL PUSH0 MSTORE PUSH1 0x1 PUSH1 0x1 PUSH1 0xA0 SHL SUB DUP3 AND PUSH1 0x4 MSTORE PUSH1 0x24 PUSH0 REVERT JUMPDEST PUSH1 0x20 SWAP2 POP ADD REVERT JUMPDEST PUSH1 0x1 PUSH1 0x1 PUSH1 0xE0 SHL SUB NOT AND PUSH4 0x757A42FF PUSH1 0xE1 SHL ADD PUSH2 0x2024 JUMPI POP PUSH0 DUP1 DUP1 DUP1 PUSH2 0x1F88 JUMP JUMPDEST PUSH4 0x32505749 PUSH1 0xE1 SHL PUSH0 MSTORE PUSH1 0x1 PUSH1 0x1 PUSH1 0xA0 SHL SUB AND PUSH1 0x4 MSTORE PUSH1 0x24 PUSH0 REVERT JUMPDEST PUSH2 0x2062 SWAP2 SWAP3 POP PUSH1 0x20 RETURNDATASIZE PUSH1 0x20 GT PUSH2 0x2069 JUMPI JUMPDEST PUSH2 0x205A DUP2 DUP4 PUSH2 0xCFE JUMP JUMPDEST DUP2 ADD SWAP1 PUSH2 0x1F39 JUMP JUMPDEST SWAP1 PUSH0 PUSH2 0x1FC9 JUMP JUMPDEST POP RETURNDATASIZE PUSH2 0x2050 JUMP JUMPDEST SWAP4 SWAP2 SWAP4 DUP5 EXTCODESIZE PUSH2 0x2081 JUMPI JUMPDEST POP POP POP POP POP JUMP JUMPDEST PUSH2 0x20A2 PUSH1 0x20 SWAP4 PUSH1 0x40 MLOAD SWAP6 DUP7 SWAP5 DUP6 SWAP5 PUSH4 0xA85BD01 PUSH1 0xE1 SHL DUP7 MSTORE PUSH1 0x4 DUP7 ADD PUSH2 0x1F4E JUMP JUMPDEST SUB DUP2 PUSH0 PUSH1 0x1 PUSH1 0x1 PUSH1 0xA0 SHL SUB DUP8 AND GAS CALL PUSH0 SWAP2 DUP2 PUSH2 0x20E9 JUMPI JUMPDEST POP PUSH2 0x20C7 JUMPI POP PUSH2 0x1FD7 PUSH2 0x1E63 JUMP JUMPDEST PUSH1 0x1 PUSH1 0x1 PUSH1 0xE0 SHL SUB NOT AND PUSH4 0x757A42FF PUSH1 0xE1 SHL ADD PUSH2 0x2024 JUMPI POP PUSH0 DUP1 DUP1 DUP1 DUP1 PUSH2 0x207A JUMP JUMPDEST PUSH2 0x2103 SWAP2 SWAP3 POP PUSH1 0x20 RETURNDATASIZE PUSH1 0x20 GT PUSH2 0x2069 JUMPI PUSH2 0x205A DUP2 DUP4 PUSH2 0xCFE JUMP JUMPDEST SWAP1 PUSH0 PUSH2 0x20B9 JUMP JUMPDEST SWAP1 PUSH2 0x2114 DUP3 PUSH2 0xEB4 JUMP JUMPDEST PUSH2 0x2121 PUSH1 0x40 MLOAD SWAP2 DUP3 PUSH2 0xCFE JUMP JUMPDEST DUP3 DUP2 MSTORE DUP1 SWAP3 PUSH2 0x1CCE PUSH1 0x1F NOT SWAP2 PUSH2 0xEB4 JUMP JUMPDEST DUP1 PUSH0 SWAP2 PUSH19 0x184F03E93FF9F4DAA797ED6E38ED64BF6A1F01 PUSH1 0x40 SHL DUP3 LT ISZERO PUSH2 0x2265 JUMPI JUMPDEST DUP1 PUSH14 0x4EE2D6D415B85ACEF8100000000 PUSH1 0xA SWAP3 LT ISZERO PUSH2 0x2249 JUMPI JUMPDEST PUSH7 0x2386F26FC10000 DUP2 LT ISZERO PUSH2 0x2234 JUMPI JUMPDEST PUSH4 0x5F5E100 DUP2 LT ISZERO PUSH2 0x2222 JUMPI JUMPDEST PUSH2 0x2710 DUP2 LT ISZERO PUSH2 0x2212 JUMPI JUMPDEST PUSH1 0x64 DUP2 LT ISZERO PUSH2 0x2203 JUMPI JUMPDEST LT ISZERO PUSH2 0x21F8 JUMPI JUMPDEST PUSH2 0x21E3 PUSH1 0x21 PUSH2 0x21B8 PUSH1 0x1 DUP6 ADD PUSH2 0x210A JUMP JUMPDEST SWAP4 DUP5 ADD ADD JUMPDEST PUSH0 NOT ADD SWAP2 PUSH16 0x181899199A1A9B1B9C1CB0B131B232B3 PUSH1 0x81 SHL PUSH1 0xA DUP3 MOD BYTE DUP4 MSTORE8 PUSH1 0xA SWAP1 DIV SWAP1 JUMP JUMPDEST DUP1 ISZERO PUSH2 0x21F3 JUMPI PUSH2 0x21E3 SWAP1 SWAP2 PUSH2 0x21BD JUMP JUMPDEST POP POP SWAP1 JUMP JUMPDEST PUSH1 0x1 SWAP1 SWAP2 ADD SWAP1 PUSH2 0x21A7 JUMP JUMPDEST PUSH1 0x2 SWAP1 PUSH1 0x64 SWAP1 DIV SWAP4 ADD SWAP3 PUSH2 0x21A0 JUMP JUMPDEST PUSH1 0x4 SWAP1 PUSH2 0x2710 SWAP1 DIV SWAP4 ADD SWAP3 PUSH2 0x2196 JUMP JUMPDEST PUSH1 0x8 SWAP1 PUSH4 0x5F5E100 SWAP1 DIV SWAP4 ADD SWAP3 PUSH2 0x218B JUMP JUMPDEST PUSH1 0x10 SWAP1 PUSH7 0x2386F26FC10000 SWAP1 DIV SWAP4 ADD SWAP3 PUSH2 0x217E JUMP JUMPDEST PUSH1 0x20 SWAP1 PUSH14 0x4EE2D6D415B85ACEF8100000000 SWAP1 DIV SWAP4 ADD SWAP3 PUSH2 0x216E JUMP JUMPDEST POP PUSH1 0x40 SWAP2 POP PUSH19 0x184F03E93FF9F4DAA797ED6E38ED64BF6A1F01 PUSH1 0x40 SHL DUP2 DIV PUSH2 0x2154 JUMP JUMPDEST SWAP1 DUP2 PUSH1 0x1 SHL SWAP2 DUP1 DUP4 DIV PUSH1 0x2 EQ SWAP1 ISZERO OR ISZERO PUSH2 0x1D13 JUMPI JUMP JUMPDEST PUSH1 0x2 DUP2 SWAP1 SHL SWAP2 SWAP1 PUSH1 0x1 PUSH1 0x1 PUSH1 0xFE SHL SUB DUP2 AND SUB PUSH2 0x1D13 JUMPI JUMP JUMPDEST DUP1 MLOAD PUSH1 0x1 LT ISZERO PUSH2 0x1CEC JUMPI PUSH1 0x21 ADD SWAP1 JUMP JUMPDEST SWAP1 DUP2 MLOAD DUP2 LT ISZERO PUSH2 0x1CEC JUMPI ADD PUSH1 0x20 ADD SWAP1 JUMP JUMPDEST SWAP1 PUSH2 0x22EA PUSH2 0x22E5 DUP4 MLOAD PUSH2 0x2288 JUMP JUMPDEST PUSH2 0x210A JUMP JUMPDEST PUSH0 DUP1 JUMPDEST DUP5 MLOAD DUP3 LT ISZERO PUSH2 0x23A7 JUMPI PUSH2 0x2311 PUSH2 0x2303 DUP4 DUP8 PUSH2 0x22C6 JUMP JUMPDEST MLOAD PUSH1 0x1 PUSH1 0x1 PUSH1 0xF8 SHL SUB NOT AND SWAP1 JUMP JUMPDEST SWAP2 PUSH1 0x1 PUSH1 0x1 PUSH1 0xF8 SHL SUB NOT DUP4 AND PUSH1 0x11 PUSH1 0xF9 SHL DUP2 EQ SWAP1 DUP2 ISZERO PUSH2 0x2399 JUMPI JUMPDEST POP ISZERO PUSH2 0x236A JUMPI DUP2 PUSH1 0x5C PUSH2 0x234A PUSH2 0x2343 PUSH1 0x1 SWAP6 PUSH2 0x1D05 JUMP JUMPDEST SWAP3 DUP8 PUSH2 0x22C6 JUMP JUMPDEST MSTORE8 PUSH2 0x2361 PUSH2 0x2357 DUP3 PUSH2 0x1D05 JUMP JUMPDEST SWAP5 PUSH0 BYTE SWAP2 DUP7 PUSH2 0x22C6 JUMP JUMPDEST MSTORE8 JUMPDEST ADD SWAP1 PUSH2 0x22ED JUMP JUMPDEST PUSH1 0x20 DUP4 PUSH1 0xF8 SHR LT ISZERO PUSH2 0x2381 JUMPI JUMPDEST PUSH1 0x1 SWAP2 SWAP3 POP PUSH2 0x2363 JUMP JUMPDEST PUSH1 0x1 SWAP2 PUSH2 0x2390 PUSH2 0x2357 DUP3 PUSH2 0x1D05 JUMP JUMPDEST MSTORE8 DUP3 SWAP2 POP PUSH2 0x2377 JUMP JUMPDEST PUSH1 0x17 PUSH1 0xFA SHL EQ SWAP1 POP PUSH0 PUSH2 0x232C JUMP JUMPDEST DUP3 MSTORE POP SWAP2 POP JUMP JUMPDEST PUSH2 0x30F PUSH2 0x23E8 SWAP2 PUSH2 0x23F6 PUSH2 0x23D6 PUSH8 0xDE0B6B3A7640000 PUSH2 0x23CF DUP2 DUP6 DIV PUSH2 0x2132 JUMP JUMPDEST SWAP4 MOD PUSH2 0x271E JUMP JUMPDEST PUSH1 0x1 PUSH1 0x40 MLOAD SWAP6 DUP7 SWAP5 PUSH1 0x20 DUP7 ADD SWAP1 PUSH2 0x1E28 JUMP JUMPDEST PUSH1 0x17 PUSH1 0xF9 SHL DUP2 MSTORE ADD SWAP1 PUSH2 0x1E28 JUMP JUMPDEST SUB PUSH1 0x1F NOT DUP2 ADD DUP4 MSTORE DUP3 PUSH2 0xCFE JUMP JUMPDEST PUSH1 0x1 PUSH1 0x1 PUSH1 0xA0 SHL SUB AND DUP1 PUSH2 0x241B PUSH2 0x22E5 PUSH1 0x28 PUSH2 0x1E3A JUMP JUMPDEST SWAP2 DUP3 MLOAD ISZERO PUSH2 0x1CEC JUMPI PUSH1 0x30 PUSH1 0x20 DUP5 ADD MSTORE8 PUSH1 0x78 PUSH2 0x2435 DUP5 PUSH2 0x22B6 JUMP JUMPDEST MSTORE8 PUSH2 0x2440 PUSH1 0x28 PUSH2 0x1E48 JUMP JUMPDEST PUSH1 0x1 DUP2 GT PUSH2 0x2468 JUMPI POP PUSH2 0x2451 JUMPI POP SWAP1 JUMP JUMPDEST PUSH4 0xE22E27EB PUSH1 0xE0 SHL PUSH0 MSTORE PUSH1 0x4 MSTORE PUSH1 0x14 PUSH1 0x24 MSTORE PUSH1 0x44 PUSH0 REVERT JUMPDEST SWAP1 PUSH1 0xF DUP2 AND PUSH1 0x10 DUP2 LT ISZERO PUSH2 0x1CEC JUMPI PUSH2 0x24AB SWAP2 PUSH2 0x24A5 SWAP2 PUSH16 0x181899199A1A9B1B9C1CB0B131B232B3 PUSH1 0x81 SHL SWAP1 BYTE PUSH2 0x249E DUP6 DUP9 PUSH2 0x22C6 JUMP JUMPDEST MSTORE8 PUSH1 0x4 SHR SWAP1 JUMP JUMPDEST SWAP2 PUSH2 0x279A JUMP JUMPDEST PUSH2 0x2440 JUMP JUMPDEST SWAP1 PUSH1 0x40 MLOAD SWAP1 PUSH2 0x24C0 PUSH1 0x20 DUP4 PUSH2 0xCFE JUMP JUMPDEST PUSH0 DUP3 MSTORE PUSH1 0x1 PUSH1 0x1 PUSH1 0xA0 SHL SUB DUP4 AND DUP1 ISZERO PUSH2 0x180E JUMPI PUSH0 DUP3 DUP2 MSTORE PUSH1 0x2 PUSH1 0x20 MSTORE PUSH1 0x40 SWAP1 KECCAK256 SLOAD PUSH1 0x1 PUSH1 0x1 PUSH1 0xA0 SHL SUB AND DUP1 ISZERO DUP1 ISZERO SWAP3 SWAP1 DUP3 SWAP1 DUP5 PUSH2 0x25AE JUMPI JUMPDEST PUSH1 0x1 PUSH1 0x1 PUSH1 0xA0 SHL SUB DUP9 AND PUSH0 SWAP1 DUP2 MSTORE PUSH1 0x3 PUSH1 0x20 MSTORE PUSH1 0x40 SWAP1 KECCAK256 PUSH1 0x1 DUP2 SLOAD ADD SWAP1 SSTORE PUSH2 0x252C DUP9 PUSH2 0x4D3 DUP9 PUSH0 MSTORE PUSH1 0x2 PUSH1 0x20 MSTORE PUSH1 0x40 PUSH0 KECCAK256 SWAP1 JUMP JUMPDEST DUP6 DUP4 DUP4 PUSH32 0xDDF252AD1BE2C89B69C2B068FC378DAA952BA7F163C4A11628F55A4DF523B3EF PUSH0 DUP1 LOG4 ISZERO PUSH2 0x2598 JUMPI PUSH2 0x2561 DUP6 PUSH2 0x267F JUMP JUMPDEST SUB PUSH2 0x2589 JUMPI JUMPDEST POP PUSH2 0x2576 JUMPI PUSH2 0xD5D SWAP3 CALLER PUSH2 0x1F7F JUMP JUMPDEST PUSH4 0x39E35637 PUSH1 0xE1 SHL PUSH0 MSTORE PUSH0 PUSH1 0x4 MSTORE PUSH1 0x24 PUSH0 REVERT JUMPDEST PUSH2 0x2593 DUP4 DUP7 PUSH2 0x26DB JUMP JUMPDEST PUSH2 0x2567 JUMP JUMPDEST DUP1 DUP3 EQ PUSH2 0x2561 JUMPI PUSH2 0x25A9 DUP6 DUP5 PUSH2 0x25FC JUMP JUMPDEST PUSH2 0x2561 JUMP JUMPDEST PUSH2 0x25B7 DUP7 PUSH2 0x25DA JUMP JUMPDEST PUSH1 0x1 PUSH1 0x1 PUSH1 0xA0 SHL SUB DUP5 AND PUSH0 SWAP1 DUP2 MSTORE PUSH1 0x3 PUSH1 0x20 MSTORE PUSH1 0x40 SWAP1 KECCAK256 DUP1 SLOAD PUSH0 NOT ADD SWAP1 SSTORE PUSH2 0x24F8 JUMP JUMPDEST PUSH2 0x25EC SWAP1 PUSH0 MSTORE PUSH1 0x4 PUSH1 0x20 MSTORE PUSH1 0x40 PUSH0 KECCAK256 SWAP1 JUMP JUMPDEST DUP1 SLOAD PUSH1 0x1 PUSH1 0x1 PUSH1 0xA0 SHL SUB NOT AND SWAP1 SSTORE JUMP JUMPDEST PUSH0 SWAP2 PUSH2 0x2651 SWAP2 PUSH2 0x260B DUP2 PUSH2 0x1D18 JUMP JUMPDEST SWAP2 DUP1 DUP6 MSTORE PUSH1 0x7 PUSH1 0x20 MSTORE PUSH1 0x40 DUP6 KECCAK256 SLOAD SWAP2 PUSH1 0x1 DUP1 PUSH1 0xA0 SHL SUB AND DUP6 MSTORE PUSH1 0x6 PUSH1 0x20 MSTORE PUSH1 0x40 DUP6 KECCAK256 SWAP2 DUP4 DUP2 SUB PUSH2 0x2654 JUMPI JUMPDEST POP DUP5 MSTORE PUSH1 0x7 PUSH1 0x20 MSTORE DUP4 PUSH1 0x40 DUP2 KECCAK256 SSTORE SWAP1 PUSH0 MSTORE PUSH1 0x20 MSTORE PUSH1 0x40 PUSH0 KECCAK256 SWAP1 JUMP JUMPDEST SSTORE JUMP JUMPDEST DUP4 DUP7 MSTORE DUP3 PUSH1 0x20 MSTORE PUSH1 0x40 DUP7 KECCAK256 SLOAD DUP2 DUP8 MSTORE DUP4 PUSH1 0x20 MSTORE DUP1 PUSH1 0x40 DUP9 KECCAK256 SSTORE DUP7 MSTORE PUSH1 0x7 PUSH1 0x20 MSTORE PUSH1 0x40 DUP7 KECCAK256 SSTORE PUSH0 PUSH2 0x2636 JUMP JUMPDEST PUSH1 0x8 SLOAD DUP2 PUSH0 MSTORE PUSH1 0x9 PUSH1 0x20 MSTORE DUP1 PUSH1 0x40 PUSH0 KECCAK256 SSTORE PUSH9 0x10000000000000000 DUP2 LT ISZERO PUSH2 0xD20 JUMPI PUSH1 0x1 DUP2 ADD PUSH1 0x8 SSTORE PUSH1 0x8 SLOAD DUP2 LT ISZERO PUSH2 0x1CEC JUMPI PUSH1 0x8 PUSH0 MSTORE PUSH32 0xF3F7A9FE364FAAB93B216DA50A3214154F22A0A2B415B23A84C8169E8B636EE3 ADD SSTORE JUMP JUMPDEST SWAP1 PUSH2 0x26E5 DUP3 PUSH2 0x1D18 JUMP JUMPDEST PUSH0 NOT DUP2 ADD SWAP3 SWAP1 DUP4 GT PUSH2 0x1D13 JUMPI PUSH1 0x1 DUP1 PUSH1 0xA0 SHL SUB AND PUSH0 MSTORE PUSH1 0x6 PUSH1 0x20 MSTORE PUSH1 0x40 PUSH0 KECCAK256 DUP3 PUSH0 MSTORE PUSH1 0x20 MSTORE DUP1 PUSH1 0x40 PUSH0 KECCAK256 SSTORE PUSH0 MSTORE PUSH1 0x7 PUSH1 0x20 MSTORE PUSH1 0x40 PUSH0 KECCAK256 SSTORE JUMP JUMPDEST PUSH2 0x2727 SWAP1 PUSH2 0x2132 JUMP JUMPDEST DUP1 MLOAD PUSH1 0x12 DUP2 LT ISZERO PUSH2 0x2796 JUMPI PUSH1 0x12 SUB SWAP2 PUSH1 0x12 DUP4 GT SWAP2 DUP3 PUSH2 0x1D13 JUMPI PUSH2 0x2749 DUP5 PUSH2 0x210A JUMP JUMPDEST SWAP4 PUSH0 DUP5 JUMPDEST PUSH2 0x1D13 JUMPI DUP2 DUP2 LT ISZERO PUSH2 0x2770 JUMPI DUP1 PUSH1 0x30 PUSH2 0x2768 PUSH1 0x1 SWAP4 DUP10 PUSH2 0x22C6 JUMP JUMPDEST MSTORE8 ADD DUP5 PUSH2 0x274D JUMP JUMPDEST POP POP PUSH2 0x2790 SWAP3 POP SWAP3 PUSH2 0x23F6 PUSH2 0x30F SWAP3 SWAP5 PUSH1 0x40 MLOAD SWAP5 DUP6 SWAP4 PUSH1 0x20 DUP6 ADD SWAP1 PUSH2 0x1E28 JUMP JUMPDEST SWAP1 PUSH2 0x1E28 JUMP JUMPDEST POP SWAP1 JUMP JUMPDEST DUP1 ISZERO PUSH2 0x1D13 JUMPI PUSH0 NOT ADD SWAP1 JUMP JUMPDEST SWAP1 DUP2 MLOAD ISZERO PUSH2 0x28BB JUMPI PUSH2 0x27CA PUSH2 0x27C5 PUSH2 0x27BE DUP5 MLOAD PUSH2 0x1E3A JUMP JUMPDEST PUSH1 0x3 SWAP1 DIV SWAP1 JUMP JUMPDEST PUSH2 0x229E JUMP JUMPDEST SWAP1 PUSH1 0x40 MLOAD SWAP2 PUSH32 0x4142434445464748494A4B4C4D4E4F505152535455565758595A616263646566 PUSH1 0x1F MSTORE PUSH32 0x6768696A6B6C6D6E6F707172737475767778797A303132333435363738392B2F PUSH1 0x3F MSTORE PUSH1 0x20 DUP4 ADD DUP5 DUP1 MLOAD DUP2 ADD PUSH1 0x20 DUP2 ADD DUP1 MLOAD SWAP2 PUSH0 DUP3 MSTORE JUMPDEST DUP1 DUP10 LT PUSH2 0x287F JUMPI POP PUSH1 0x20 SWAP6 SWAP7 SWAP8 POP SWAP1 PUSH1 0x3 SWAP3 SWAP2 MSTORE MLOAD MOD DUP1 PUSH1 0x1 EQ PUSH2 0x286A JUMPI PUSH1 0x2 EQ PUSH2 0x285D JUMPI JUMPDEST POP DUP1 DUP5 MSTORE DUP4 ADD ADD PUSH1 0x40 MSTORE JUMP JUMPDEST PUSH1 0x3D SWAP1 PUSH0 NOT ADD MSTORE8 PUSH0 PUSH2 0x2851 JUMP JUMPDEST POP PUSH1 0x3D SWAP1 DUP2 PUSH0 NOT DUP3 ADD MSTORE8 PUSH1 0x1 NOT ADD MSTORE8 PUSH0 PUSH2 0x2851 JUMP JUMPDEST SWAP4 SWAP8 PUSH1 0x3 PUSH1 0x4 SWAP2 ADD SWAP9 PUSH1 0x3F DUP11 MLOAD DUP2 DUP2 PUSH1 0x12 SHR AND MLOAD DUP4 MSTORE8 DUP2 DUP2 PUSH1 0xC SHR AND MLOAD PUSH1 0x1 DUP5 ADD MSTORE8 DUP2 DUP2 PUSH1 0x6 SHR AND MLOAD PUSH1 0x2 DUP5 ADD MSTORE8 AND MLOAD PUSH1 0x3 DUP3 ADD MSTORE8 ADD SWAP4 PUSH2 0x282B JUMP JUMPDEST SWAP1 POP PUSH2 0x30F PUSH2 0x1C66 JUMP JUMPDEST SWAP1 SWAP2 SWAP1 PUSH2 0x28E3 PUSH1 0x1 PUSH1 0x1 PUSH1 0xA0 SHL SUB DUP5 AND DUP1 ISZERO ISZERO SWAP1 DUP2 PUSH2 0x292B JUMPI POP ISZERO SWAP1 JUMP JUMPDEST PUSH2 0x28EC JUMPI POP POP POP JUMP JUMPDEST PUSH1 0x1 PUSH1 0x1 PUSH1 0xA0 SHL SUB AND PUSH2 0x290B JUMPI PUSH4 0x7E273289 PUSH1 0xE0 SHL PUSH0 MSTORE PUSH1 0x4 MSTORE PUSH1 0x24 PUSH0 REVERT JUMPDEST PUSH4 0x177E802F PUSH1 0xE0 SHL PUSH0 MSTORE PUSH1 0x1 PUSH1 0x1 PUSH1 0xA0 SHL SUB SWAP1 SWAP2 AND PUSH1 0x4 MSTORE PUSH1 0x24 MSTORE PUSH1 0x44 PUSH0 REVERT JUMPDEST PUSH1 0x1 PUSH1 0x1 PUSH1 0xA0 SHL SUB DUP5 AND DUP1 DUP3 EQ SWAP3 POP DUP3 ISZERO PUSH2 0x296B JUMPI JUMPDEST POP DUP2 ISZERO PUSH2 0x294D JUMPI POP ISZERO SWAP1 JUMP JUMPDEST PUSH0 DUP6 DUP2 MSTORE PUSH1 0x4 PUSH1 0x20 MSTORE PUSH1 0x40 SWAP1 KECCAK256 SLOAD PUSH1 0x1 PUSH1 0x1 PUSH1 0xA0 SHL SUB AND EQ ISZERO SWAP2 SWAP1 POP JUMP JUMPDEST SWAP1 SWAP2 POP PUSH0 MSTORE PUSH1 0x5 PUSH1 0x20 MSTORE PUSH1 0xFF PUSH2 0x2994 DUP7 PUSH1 0x40 PUSH0 KECCAK256 SWAP1 PUSH1 0x1 DUP1 PUSH1 0xA0 SHL SUB AND PUSH0 MSTORE PUSH1 0x20 MSTORE PUSH1 0x40 PUSH0 KECCAK256 SWAP1 JUMP JUMPDEST SLOAD AND SWAP1 PUSH0 PUSH2 0x2941 JUMP INVALID LOG2 PUSH5 0x6970667358 0x22 SLT KECCAK256 SWAP16 SWAP6 0xB8 DUP3 0xAE 0xEB GT 0x2F 0xBC SWAP3 0xBC DUP7 PUSH7 0xFA76DDDCA639D1 0xC4 0xF9 SWAP3 SWAP15 PUSH26 0x7FE1E91696B3F164736F6C634300081B00330000000000000000 "},"methodIdentifiers":{"MAX_PHOTOS()":"45e4234a","MAX_PRICE()":"01c11d96","MIN_PRICE()":"ad9f20a6","addPhoto(string,string,string,uint256)":"28d97984","approve(address,uint256)":"095ea7b3","balanceOf(address)":"70a08231","buyLicense(uint256)":"cae1a69c","getActivePhotoIds()":"60a6c2e5","getApproved(uint256)":"081812fc","getLicenseIdsByOwner(address)":"55ce5419","isApprovedForAll(address,address)":"e985e9c5","licenseCount()":"2fbccc27","licenses(uint256)":"33790845","name()":"06fdde03","owner()":"8da5cb5b","ownerOf(uint256)":"6352211e","photoCount()":"12d28b18","photographerEarnings(address)":"433ef118","photos(uint256)":"af2a5d6f","renounceOwnership()":"715018a6","safeTransferFrom(address,address,uint256)":"42842e0e","safeTransferFrom(address,address,uint256,bytes)":"b88d4fde","setApprovalForAll(address,bool)":"a22cb465","supportsInterface(bytes4)":"01ffc9a7","symbol()":"95d89b41","tokenByIndex(uint256)":"4f6ccce7","tokenOfOwnerByIndex(address,uint256)":"2f745c59","tokenURI(uint256)":"c87b56dd","totalSupply()":"18160ddd","transferFrom(address,address,uint256)":"23b872dd","transferOwnership(address)":"f2fde38b","updatePhoto(uint256,uint256,bool)":"83aff8ba"}}}}}