{
  "_format": "hh-sol-artifact-1",
  "contractName": "SnapArcMarket",
  "sourceName": "contracts/SnapArcMarket.sol",
  "abi": [
    {
      "inputs": [
        {
          "internalType": "string",
          "name": "name",
          "type": "string"
        },
        {
          "internalType": "string",
          "name": "symbol",
          "type": "string"
        },
        {
          "internalType": "address",
          "name": "initialOwner",
          "type": "address"
        }
      ],
      "stateMutability": "nonpayable",
      "type": "constructor"
    },
    {
      "inputs": [],
      "name": "ERC721EnumerableForbiddenBatchMint",
      "type": "error"
    },
    {
      "inputs": [
        {
          "internalType": "address",
          "name": "sender",
          "type": "address"
        },
        {
          "internalType": "uint256",
          "name": "tokenId",
          "type": "uint256"
        },
        {
          "internalType": "address",
          "name": "owner",
          "type": "address"
        }
      ],
      "name": "ERC721IncorrectOwner",
      "type": "error"
    },
    {
      "inputs": [
        {
          "internalType": "address",
          "name": "operator",
          "type": "address"
        },
        {
          "internalType": "uint256",
          "name": "tokenId",
          "type": "uint256"
        }
      ],
      "name": "ERC721InsufficientApproval",
      "type": "error"
    },
    {
      "inputs": [
        {
          "internalType": "address",
          "name": "approver",
          "type": "address"
        }
      ],
      "name": "ERC721InvalidApprover",
      "type": "error"
    },
    {
      "inputs": [
        {
          "internalType": "address",
          "name": "operator",
          "type": "address"
        }
      ],
      "name": "ERC721InvalidOperator",
      "type": "error"
    },
    {
      "inputs": [
        {
          "internalType": "address",
          "name": "owner",
          "type": "address"
        }
      ],
      "name": "ERC721InvalidOwner",
      "type": "error"
    },
    {
      "inputs": [
        {
          "internalType": "address",
          "name": "receiver",
          "type": "address"
        }
      ],
      "name": "ERC721InvalidReceiver",
      "type": "error"
    },
    {
      "inputs": [
        {
          "internalType": "address",
          "name": "sender",
          "type": "address"
        }
      ],
      "name": "ERC721InvalidSender",
      "type": "error"
    },
    {
      "inputs": [
        {
          "internalType": "uint256",
          "name": "tokenId",
          "type": "uint256"
        }
      ],
      "name": "ERC721NonexistentToken",
      "type": "error"
    },
    {
      "inputs": [
        {
          "internalType": "address",
          "name": "owner",
          "type": "address"
        },
        {
          "internalType": "uint256",
          "name": "index",
          "type": "uint256"
        }
      ],
      "name": "ERC721OutOfBoundsIndex",
      "type": "error"
    },
    {
      "inputs": [],
      "name": "EmptyImageURI",
      "type": "error"
    },
    {
      "inputs": [],
      "name": "EmptyTitle",
      "type": "error"
    },
    {
      "inputs": [
        {
          "internalType": "uint256",
          "name": "expected",
          "type": "uint256"
        },
        {
          "internalType": "uint256",
          "name": "received",
          "type": "uint256"
        }
      ],
      "name": "IncorrectPayment",
      "type": "error"
    },
    {
      "inputs": [
        {
          "internalType": "uint256",
          "name": "price",
          "type": "uint256"
        }
      ],
      "name": "InvalidPrice",
      "type": "error"
    },
    {
      "inputs": [],
      "name": "InvalidRange",
      "type": "error"
    },
    {
      "inputs": [],
      "name": "MaxPhotosReached",
      "type": "error"
    },
    {
      "inputs": [],
      "name": "NotPhotographer",
      "type": "error"
    },
    {
      "inputs": [
        {
          "internalType": "address",
          "name": "owner",
          "type": "address"
        }
      ],
      "name": "OwnableInvalidOwner",
      "type": "error"
    },
    {
      "inputs": [
        {
          "internalType": "address",
          "name": "account",
          "type": "address"
        }
      ],
      "name": "OwnableUnauthorizedAccount",
      "type": "error"
    },
    {
      "inputs": [
        {
          "internalType": "uint256",
          "name": "photoId",
          "type": "uint256"
        }
      ],
      "name": "PhotoNotActive",
      "type": "error"
    },
    {
      "inputs": [
        {
          "internalType": "uint256",
          "name": "photoId",
          "type": "uint256"
        }
      ],
      "name": "PhotoNotFound",
      "type": "error"
    },
    {
      "inputs": [],
      "name": "ReentrancyGuardReentrantCall",
      "type": "error"
    },
    {
      "inputs": [
        {
          "internalType": "uint256",
          "name": "value",
          "type": "uint256"
        },
        {
          "internalType": "uint256",
          "name": "length",
          "type": "uint256"
        }
      ],
      "name": "StringsInsufficientHexLength",
      "type": "error"
    },
    {
      "anonymous": false,
      "inputs": [
        {
          "indexed": true,
          "internalType": "address",
          "name": "owner",
          "type": "address"
        },
        {
          "indexed": true,
          "internalType": "address",
          "name": "approved",
          "type": "address"
        },
        {
          "indexed": true,
          "internalType": "uint256",
          "name": "tokenId",
          "type": "uint256"
        }
      ],
      "name": "Approval",
      "type": "event"
    },
    {
      "anonymous": false,
      "inputs": [
        {
          "indexed": true,
          "internalType": "address",
          "name": "owner",
          "type": "address"
        },
        {
          "indexed": true,
          "internalType": "address",
          "name": "operator",
          "type": "address"
        },
        {
          "indexed": false,
          "internalType": "bool",
          "name": "approved",
          "type": "bool"
        }
      ],
      "name": "ApprovalForAll",
      "type": "event"
    },
    {
      "anonymous": false,
      "inputs": [
        {
          "indexed": true,
          "internalType": "uint256",
          "name": "tokenId",
          "type": "uint256"
        },
        {
          "indexed": true,
          "internalType": "uint256",
          "name": "photoId",
          "type": "uint256"
        },
        {
          "indexed": true,
          "internalType": "address",
          "name": "buyer",
          "type": "address"
        },
        {
          "indexed": false,
          "internalType": "address",
          "name": "photographer",
          "type": "address"
        },
        {
          "indexed": false,
          "internalType": "uint256",
          "name": "pricePaid",
          "type": "uint256"
        },
        {
          "indexed": false,
          "internalType": "uint256",
          "name": "timestamp",
          "type": "uint256"
        }
      ],
      "name": "LicensePurchased",
      "type": "event"
    },
    {
      "anonymous": false,
      "inputs": [
        {
          "indexed": true,
          "internalType": "address",
          "name": "previousOwner",
          "type": "address"
        },
        {
          "indexed": true,
          "internalType": "address",
          "name": "newOwner",
          "type": "address"
        }
      ],
      "name": "OwnershipTransferred",
      "type": "event"
    },
    {
      "anonymous": false,
      "inputs": [
        {
          "indexed": true,
          "internalType": "uint256",
          "name": "photoId",
          "type": "uint256"
        },
        {
          "indexed": true,
          "internalType": "address",
          "name": "photographer",
          "type": "address"
        },
        {
          "indexed": false,
          "internalType": "string",
          "name": "title",
          "type": "string"
        },
        {
          "indexed": false,
          "internalType": "uint256",
          "name": "price",
          "type": "uint256"
        },
        {
          "indexed": false,
          "internalType": "string",
          "name": "imageURI",
          "type": "string"
        }
      ],
      "name": "PhotoAdded",
      "type": "event"
    },
    {
      "anonymous": false,
      "inputs": [
        {
          "indexed": true,
          "internalType": "uint256",
          "name": "photoId",
          "type": "uint256"
        },
        {
          "indexed": false,
          "internalType": "uint256",
          "name": "price",
          "type": "uint256"
        },
        {
          "indexed": false,
          "internalType": "bool",
          "name": "active",
          "type": "bool"
        }
      ],
      "name": "PhotoUpdated",
      "type": "event"
    },
    {
      "anonymous": false,
      "inputs": [
        {
          "indexed": true,
          "internalType": "address",
          "name": "from",
          "type": "address"
        },
        {
          "indexed": true,
          "internalType": "address",
          "name": "to",
          "type": "address"
        },
        {
          "indexed": true,
          "internalType": "uint256",
          "name": "tokenId",
          "type": "uint256"
        }
      ],
      "name": "Transfer",
      "type": "event"
    },
    {
      "inputs": [],
      "name": "MAX_PHOTOS",
      "outputs": [
        {
          "internalType": "uint256",
          "name": "",
          "type": "uint256"
        }
      ],
      "stateMutability": "view",
      "type": "function"
    },
    {
      "inputs": [],
      "name": "MAX_PRICE",
      "outputs": [
        {
          "internalType": "uint256",
          "name": "",
          "type": "uint256"
        }
      ],
      "stateMutability": "view",
      "type": "function"
    },
    {
      "inputs": [],
      "name": "MIN_PRICE",
      "outputs": [
        {
          "internalType": "uint256",
          "name": "",
          "type": "uint256"
        }
      ],
      "stateMutability": "view",
      "type": "function"
    },
    {
      "inputs": [
        {
          "internalType": "string",
          "name": "title",
          "type": "string"
        },
        {
          "internalType": "string",
          "name": "description",
          "type": "string"
        },
        {
          "internalType": "string",
          "name": "imageURI",
          "type": "string"
        },
        {
          "internalType": "uint256",
          "name": "price",
          "type": "uint256"
        }
      ],
      "name": "addPhoto",
      "outputs": [
        {
          "internalType": "uint256",
          "name": "photoId",
          "type": "uint256"
        }
      ],
      "stateMutability": "nonpayable",
      "type": "function"
    },
    {
      "inputs": [
        {
          "internalType": "address",
          "name": "to",
          "type": "address"
        },
        {
          "internalType": "uint256",
          "name": "tokenId",
          "type": "uint256"
        }
      ],
      "name": "approve",
      "outputs": [],
      "stateMutability": "nonpayable",
      "type": "function"
    },
    {
      "inputs": [
        {
          "internalType": "address",
          "name": "owner",
          "type": "address"
        }
      ],
      "name": "balanceOf",
      "outputs": [
        {
          "internalType": "uint256",
          "name": "",
          "type": "uint256"
        }
      ],
      "stateMutability": "view",
      "type": "function"
    },
    {
      "inputs": [
        {
          "internalType": "uint256",
          "name": "photoId",
          "type": "uint256"
        }
      ],
      "name": "buyLicense",
      "outputs": [],
      "stateMutability": "payable",
      "type": "function"
    },
    {
      "inputs": [],
      "name": "getActivePhotoIds",
      "outputs": [
        {
          "internalType": "uint256[]",
          "name": "",
          "type": "uint256[]"
        }
      ],
      "stateMutability": "view",
      "type": "function"
    },
    {
      "inputs": [
        {
          "internalType": "uint256",
          "name": "tokenId",
          "type": "uint256"
        }
      ],
      "name": "getApproved",
      "outputs": [
        {
          "internalType": "address",
          "name": "",
          "type": "address"
        }
      ],
      "stateMutability": "view",
      "type": "function"
    },
    {
      "inputs": [
        {
          "internalType": "address",
          "name": "owner",
          "type": "address"
        }
      ],
      "name": "getLicenseIdsByOwner",
      "outputs": [
        {
          "internalType": "uint256[]",
          "name": "",
          "type": "uint256[]"
        }
      ],
      "stateMutability": "view",
      "type": "function"
    },
    {
      "inputs": [
        {
          "internalType": "address",
          "name": "owner",
          "type": "address"
        },
        {
          "internalType": "address",
          "name": "operator",
          "type": "address"
        }
      ],
      "name": "isApprovedForAll",
      "outputs": [
        {
          "internalType": "bool",
          "name": "",
          "type": "bool"
        }
      ],
      "stateMutability": "view",
      "type": "function"
    },
    {
      "inputs": [],
      "name": "licenseCount",
      "outputs": [
        {
          "internalType": "uint256",
          "name": "",
          "type": "uint256"
        }
      ],
      "stateMutability": "view",
      "type": "function"
    },
    {
      "inputs": [
        {
          "internalType": "uint256",
          "name": "",
          "type": "uint256"
        }
      ],
      "name": "licenses",
      "outputs": [
        {
          "internalType": "uint256",
          "name": "photoId",
          "type": "uint256"
        },
        {
          "internalType": "address",
          "name": "buyer",
          "type": "address"
        },
        {
          "internalType": "uint256",
          "name": "pricePaid",
          "type": "uint256"
        },
        {
          "internalType": "uint256",
          "name": "purchasedAt",
          "type": "uint256"
        }
      ],
      "stateMutability": "view",
      "type": "function"
    },
    {
      "inputs": [],
      "name": "name",
      "outputs": [
        {
          "internalType": "string",
          "name": "",
          "type": "string"
        }
      ],
      "stateMutability": "view",
      "type": "function"
    },
    {
      "inputs": [],
      "name": "owner",
      "outputs": [
        {
          "internalType": "address",
          "name": "",
          "type": "address"
        }
      ],
      "stateMutability": "view",
      "type": "function"
    },
    {
      "inputs": [
        {
          "internalType": "uint256",
          "name": "tokenId",
          "type": "uint256"
        }
      ],
      "name": "ownerOf",
      "outputs": [
        {
          "internalType": "address",
          "name": "",
          "type": "address"
        }
      ],
      "stateMutability": "view",
      "type": "function"
    },
    {
      "inputs": [],
      "name": "photoCount",
      "outputs": [
        {
          "internalType": "uint256",
          "name": "",
          "type": "uint256"
        }
      ],
      "stateMutability": "view",
      "type": "function"
    },
    {
      "inputs": [
        {
          "internalType": "address",
          "name": "",
          "type": "address"
        }
      ],
      "name": "photographerEarnings",
      "outputs": [
        {
          "internalType": "uint256",
          "name": "",
          "type": "uint256"
        }
      ],
      "stateMutability": "view",
      "type": "function"
    },
    {
      "inputs": [
        {
          "internalType": "uint256",
          "name": "",
          "type": "uint256"
        }
      ],
      "name": "photos",
      "outputs": [
        {
          "internalType": "address",
          "name": "photographer",
          "type": "address"
        },
        {
          "internalType": "string",
          "name": "title",
          "type": "string"
        },
        {
          "internalType": "string",
          "name": "description",
          "type": "string"
        },
        {
          "internalType": "string",
          "name": "imageURI",
          "type": "string"
        },
        {
          "internalType": "uint256",
          "name": "price",
          "type": "uint256"
        },
        {
          "internalType": "bool",
          "name": "active",
          "type": "bool"
        },
        {
          "internalType": "uint256",
          "name": "createdAt",
          "type": "uint256"
        }
      ],
      "stateMutability": "view",
      "type": "function"
    },
    {
      "inputs": [],
      "name": "renounceOwnership",
      "outputs": [],
      "stateMutability": "nonpayable",
      "type": "function"
    },
    {
      "inputs": [
        {
          "internalType": "address",
          "name": "from",
          "type": "address"
        },
        {
          "internalType": "address",
          "name": "to",
          "type": "address"
        },
        {
          "internalType": "uint256",
          "name": "tokenId",
          "type": "uint256"
        }
      ],
      "name": "safeTransferFrom",
      "outputs": [],
      "stateMutability": "nonpayable",
      "type": "function"
    },
    {
      "inputs": [
        {
          "internalType": "address",
          "name": "from",
          "type": "address"
        },
        {
          "internalType": "address",
          "name": "to",
          "type": "address"
        },
        {
          "internalType": "uint256",
          "name": "tokenId",
          "type": "uint256"
        },
        {
          "internalType": "bytes",
          "name": "data",
          "type": "bytes"
        }
      ],
      "name": "safeTransferFrom",
      "outputs": [],
      "stateMutability": "nonpayable",
      "type": "function"
    },
    {
      "inputs": [
        {
          "internalType": "address",
          "name": "operator",
          "type": "address"
        },
        {
          "internalType": "bool",
          "name": "approved",
          "type": "bool"
        }
      ],
      "name": "setApprovalForAll",
      "outputs": [],
      "stateMutability": "nonpayable",
      "type": "function"
    },
    {
      "inputs": [
        {
          "internalType": "bytes4",
          "name": "interfaceId",
          "type": "bytes4"
        }
      ],
      "name": "supportsInterface",
      "outputs": [
        {
          "internalType": "bool",
          "name": "",
          "type": "bool"
        }
      ],
      "stateMutability": "view",
      "type": "function"
    },
    {
      "inputs": [],
      "name": "symbol",
      "outputs": [
        {
          "internalType": "string",
          "name": "",
          "type": "string"
        }
      ],
      "stateMutability": "view",
      "type": "function"
    },
    {
      "inputs": [
        {
          "internalType": "uint256",
          "name": "index",
          "type": "uint256"
        }
      ],
      "name": "tokenByIndex",
      "outputs": [
        {
          "internalType": "uint256",
          "name": "",
          "type": "uint256"
        }
      ],
      "stateMutability": "view",
      "type": "function"
    },
    {
      "inputs": [
        {
          "internalType": "address",
          "name": "owner",
          "type": "address"
        },
        {
          "internalType": "uint256",
          "name": "index",
          "type": "uint256"
        }
      ],
      "name": "tokenOfOwnerByIndex",
      "outputs": [
        {
          "internalType": "uint256",
          "name": "",
          "type": "uint256"
        }
      ],
      "stateMutability": "view",
      "type": "function"
    },
    {
      "inputs": [
        {
          "internalType": "uint256",
          "name": "tokenId",
          "type": "uint256"
        }
      ],
      "name": "tokenURI",
      "outputs": [
        {
          "internalType": "string",
          "name": "",
          "type": "string"
        }
      ],
      "stateMutability": "view",
      "type": "function"
    },
    {
      "inputs": [],
      "name": "totalSupply",
      "outputs": [
        {
          "internalType": "uint256",
          "name": "",
          "type": "uint256"
        }
      ],
      "stateMutability": "view",
      "type": "function"
    },
    {
      "inputs": [
        {
          "internalType": "address",
          "name": "from",
          "type": "address"
        },
        {
          "internalType": "address",
          "name": "to",
          "type": "address"
        },
        {
          "internalType": "uint256",
          "name": "tokenId",
          "type": "uint256"
        }
      ],
      "name": "transferFrom",
      "outputs": [],
      "stateMutability": "nonpayable",
      "type": "function"
    },
    {
      "inputs": [
        {
          "internalType": "address",
          "name": "newOwner",
          "type": "address"
        }
      ],
      "name": "transferOwnership",
      "outputs": [],
      "stateMutability": "nonpayable",
      "type": "function"
    },
    {
      "inputs": [
        {
          "internalType": "uint256",
          "name": "photoId",
          "type": "uint256"
        },
        {
          "internalType": "uint256",
          "name": "newPrice",
          "type": "uint256"
        },
        {
          "internalType": "bool",
          "name": "active",
          "type": "bool"
        }
      ],
      "name": "updatePhoto",
      "outputs": [],
      "stateMutability": "nonpayable",
      "type": "function"
    },
    {
      "stateMutability": "payable",
      "type": "receive"
    }
  ],
  "bytecode": "0x6080604052346103a757612df580380380610019816103ab565b9283398101906060818303126103a75780516001600160401b0381116103a757826100459183016103d0565b60208201519092906001600160401b0381116103a7576040916100699184016103d0565b9101516001600160a01b038116908190036103a75782516001600160401b0381116102bb575f54600181811c9116801561039d575b602082101461029d57601f811161033b575b506020601f82116001146102da57819293945f926102cf575b50508160011b915f199060031b1c1916175f555b81516001600160401b0381116102bb57600154600181811c911680156102b1575b602082101461029d57601f811161023a575b50602092601f82116001146101d957928192935f926101ce575b50508160011b915f199060031b1c1916176001555b80156101bb57600a80546001600160a01b03198116831790915560405191906001600160a01b03167f8be0079c531659141344cd1fd0a4f28419497f9722a3daafe3b4186f6b6457e05f80a360017f9b779b17422d0df92223018b32b4d1fa46e071723d6817e2486d003becc55f00556129d390816104228239f35b631e4fbdf760e01b5f525f60045260245ffd5b015190505f8061012a565b601f1982169360015f52805f20915f5b868110610222575083600195961061020a575b505050811b0160015561013f565b01515f1960f88460031b161c191690555f80806101fc565b919260206001819286850151815501940192016101e9565b60015f527fb10e2d527612073b26eecdfd717e6a320cf44b4afac2b0732d9fcbe2b7fa0cf6601f830160051c81019160208410610293575b601f0160051c01905b8181106102885750610110565b5f815560010161027b565b9091508190610272565b634e487b7160e01b5f52602260045260245ffd5b90607f16906100fe565b634e487b7160e01b5f52604160045260245ffd5b015190505f806100c9565b601f198216905f8052805f20915f5b8181106103235750958360019596971061030b575b505050811b015f556100dd565b01515f1960f88460031b161c191690555f80806102fe565b9192602060018192868b0151815501940192016102e9565b5f80527f290decd9548b62a8d60345a988386fc84ba6bc95484008f6362f93160ef3e563601f830160051c81019160208410610393575b601f0160051c01905b81811061038857506100b0565b5f815560010161037b565b9091508190610372565b90607f169061009e565b5f80fd5b6040519190601f01601f191682016001600160401b038111838210176102bb57604052565b81601f820112156103a7578051906001600160401b0382116102bb576103ff601f8301601f19166020016103ab565b92828452602083830101116103a757815f9260208093018386015e830101529056fe6080604052600436101561001a575b3615610018575f80fd5b005b5f3560e01c806301c11d961461021957806301ffc9a71461021457806306fdde031461020f578063081812fc1461020a578063095ea7b31461020557806312d28b181461020057806318160ddd146101fb57806323b872dd146101f657806328d97984146101f15780632f745c59146101ec5780632fbccc27146101e757806333790845146101e257806342842e0e146101dd578063433ef118146101d857806345e4234a146101d35780634f6ccce7146101ce57806355ce5419146101c957806360a6c2e5146101c45780636352211e146101bf57806370a08231146101ba578063715018a6146101b557806383aff8ba146101b05780638da5cb5b146101ab57806395d89b41146101a6578063a22cb465146101a1578063ad9f20a61461019c578063af2a5d6f14610197578063b88d4fde14610192578063c87b56dd1461018d578063cae1a69c14610188578063e985e9c5146101835763f2fde38b0361000e57611640565b6115e4565b611398565b610f6c565b610f06565b610e21565b610c90565b610bc6565b610b21565b610af9565b610a1c565b6109a3565b610980565b610950565b6108cf565b61086e565b6107cf565b6107b3565b61077b565b610746565b6106f2565b6106d5565b6106a6565b61060f565b6105ca565b610573565b610556565b610451565b6103e9565b610312565b610251565b3461023b575f36600319011261023b5760206040516706f05b59d3b200008152f35b5f80fd5b6001600160e01b031981160361023b57565b3461023b57602036600319011261023b5760043561026e8161023f565b63ffffffff60e01b1663780e9d6360e01b8114908115610297575b506040519015158152602090f35b6380ac58cd60e01b8114915081156102c9575b81156102b8575b505f610289565b6301ffc9a760e01b1490505f6102b1565b635b5e139f60e01b811491506102aa565b805180835260209291819084018484015e5f828201840152601f01601f1916010190565b90602061030f9281815201906102da565b90565b3461023b575f36600319011261023b576040515f5f5461033181610cb2565b80845290600181169081156103c55750600114610369575b6103658361035981850382610cfe565b604051918291826102fe565b0390f35b5f8080527f290decd9548b62a8d60345a988386fc84ba6bc95484008f6362f93160ef3e563939250905b8082106103ab57509091508101602001610359610349565b919260018160209254838588010152019101909291610393565b60ff191660208086019190915291151560051b840190910191506103599050610349565b3461023b57602036600319011261023b5760043561040681611ede565b505f526004602052602060018060a01b0360405f205416604051908152f35b600435906001600160a01b038216820361023b57565b602435906001600160a01b038216820361023b57565b3461023b57604036600319011261023b5761046a610425565b6024359061047782611ede565b33151580610543575b80610505575b6104f257610018926104d39181906001600160a01b0385811691167f8c5be1e5ebec7d5bd14f71427d1e84f3dd0314c0f7b2291e5b200ac8c7c3b9255f80a45f52600460205260405f2090565b80546001600160a01b0319166001600160a01b03909216919091179055565b63a9fbf51f60e01b5f523360045260245ffd5b5060ff61053b336105268460018060a01b03165f52600560205260405f2090565b9060018060a01b03165f5260205260405f2090565b541615610486565b506001600160a01b038116331415610480565b3461023b575f36600319011261023b576020600b54604051908152f35b3461023b575f36600319011261023b576020600854604051908152f35b606090600319011261023b576004356001600160a01b038116810361023b57906024356001600160a01b038116810361023b579060443590565b3461023b576100186105db36610590565b916116c6565b9181601f8401121561023b5782359167ffffffffffffffff831161023b576020838186019501011161023b57565b3461023b57608036600319011261023b5760043567ffffffffffffffff811161023b576106409036906004016105e1565b60243567ffffffffffffffff811161023b576106609036906004016105e1565b92906044359267ffffffffffffffff841161023b576103659461068a6106969536906004016105e1565b93909260643595611ad6565b6040519081529081906020820190565b3461023b57604036600319011261023b5760206106cd6106c4610425565b60243590611c18565b604051908152f35b3461023b575f36600319011261023b576020600c54604051908152f35b3461023b57602036600319011261023b576004355f52600e602052608060405f2080549060018060a01b03600182015416906003600282015491015491604051938452602084015260408301526060820152f35b3461023b5761001861075736610590565b9060405192610767602085610cfe565b5f84526107758383836116c6565b33612070565b3461023b57602036600319011261023b576001600160a01b0361079c610425565b165f52600f602052602060405f2054604051908152f35b3461023b575f36600319011261023b5760206040516127108152f35b3461023b57602036600319011261023b5760043560085481101561081f5760085f527ff3f7a9fe364faab93b216da50a3214154f22a0a2b415b23a84c8169e8b636ee30154604051908152602090f35b63295f44f760e21b5f525f60045260245260445ffd5b60206040818301928281528451809452019201905f5b8181106108585750505090565b825184526020938401939092019160010161084b565b3461023b57602036600319011261023b57610887610425565b61089081611d18565b61089981611ca6565b915f5b8281106108b157604051806103658682610835565b806108be60019284611c18565b6108c88287611cd8565b520161089c565b3461023b575f36600319011261023b57600b546108eb81611ca6565b5f9160015b8181111561090957838352604051806103658582610835565b805f52600d60205260ff600560405f2001541661092f575b61092a90611d05565b6108f0565b92610948818561094261092a9487611cd8565b52611d05565b939050610921565b3461023b57602036600319011261023b57602061096e600435611ede565b6040516001600160a01b039091168152f35b3461023b57602036600319011261023b5760206106cd61099e610425565b611d18565b3461023b575f36600319011261023b576109bb611f12565b600a80546001600160a01b031981169091555f906001600160a01b03167f8be0079c531659141344cd1fd0a4f28419497f9722a3daafe3b4186f6b6457e08280a3005b60443590811515820361023b57565b60243590811515820361023b57565b3461023b57606036600319011261023b57602435600435610a3b6109fe565b5f828152600d602052604090208054336001600160a01b0390911603610aea5767016345785d8a000084108015610ad9575b610ac55792610ab3826005868460047f076c701c3a018a90daa34d8a697e2965796fec3a6fc3b8f77dd9047c2d11055198990155019060ff801983541691151516179055565b604080519182529115156020820152a2005b637cb1974360e11b5f52600484905260245ffd5b506706f05b59d3b200008411610a6d565b63f93bc30560e01b5f5260045ffd5b3461023b575f36600319011261023b57600a546040516001600160a01b039091168152602090f35b3461023b575f36600319011261023b576040515f600154610b4181610cb2565b80845290600181169081156103c55750600114610b68576103658361035981850382610cfe565b60015f9081527fb10e2d527612073b26eecdfd717e6a320cf44b4afac2b0732d9fcbe2b7fa0cf6939250905b808210610bac57509091508101602001610359610349565b919260018160209254838588010152019101909291610b94565b3461023b57604036600319011261023b57610bdf610425565b610be7610a0d565b3315610c7d576001600160a01b038216918215610c6a5781610c27610c3892335f52600560205260405f209060018060a01b03165f5260205260405f2090565b9060ff801983541691151516179055565b604051901515815233907f17307eab39ab6107e8899845ad3d59bd9653f200f220920489ca2b5937696c3190602090a3005b82630b61174360e31b5f5260045260245ffd5b63a9fbf51f60e01b5f525f60045260245ffd5b3461023b575f36600319011261023b57602060405167016345785d8a00008152f35b90600182811c92168015610ce0575b6020831014610ccc57565b634e487b7160e01b5f52602260045260245ffd5b91607f1691610cc1565b634e487b7160e01b5f52604160045260245ffd5b90601f8019910116810190811067ffffffffffffffff821117610d2057604052565b610cea565b9060405191825f825492610d3884610cb2565b8084529360018116908115610da35750600114610d5f575b50610d5d92500383610cfe565b565b90505f9291925260205f20905f915b818310610d87575050906020610d5d928201015f610d50565b6020919350806001915483858901015201910190918492610d6e565b905060209250610d5d94915060ff191682840152151560051b8201015f610d50565b939060c09598979693610df4610e1094610e029360018060a01b0316885260e0602089015260e08801906102da565b9086820360408801526102da565b9084820360608601526102da565b956080830152151560a08201520152565b3461023b57602036600319011261023b576004355f908152600d6020526040902080546001600160a01b0316610365610e5c60018401610d25565b92610e6960028201610d25565b90610e7660038201610d25565b600482015490600660ff6005850154169301549360405197889788610dc5565b60405190610d5d608083610cfe565b60405190610d5d60e083610cfe565b67ffffffffffffffff8111610d2057601f01601f191660200190565b929192610edc82610eb4565b91610eea6040519384610cfe565b82948184528183011161023b578281602093845f960137010152565b3461023b57608036600319011261023b57610f1f610425565b610f2761043b565b906044356064359267ffffffffffffffff841161023b573660238501121561023b57610f60610018943690602481600401359101610ed0565b926107758383836116c6565b3461023b57602036600319011261023b57600435610f8981611ede565b50610f9c815f52600e60205260405f2090565b610fa590611d49565b908151610fba905f52600d60205260405f2090565b610fc390611d96565b90610fcd90612132565b9060208101928351936040830151610fe4906122d7565b92606081015191516040840151610ffa906123ae565b60208501519091906001600160a01b031661101490612404565b92516001600160a01b031661102890612404565b93606086015161103790612132565b955161104290612132565b6040517f7b226e616d65223a22536e617020417263204c6963656e7365202300000000006020820152998a99919891603b8b0161107e91611e28565b6201016960ed1b815260030161109391611e28565b61088b60f21b81526002016e113232b9b1b934b83a34b7b7111d1160891b8152600f016110bf91611e28565b61088b60f21b8152600201681134b6b0b3b2911d1160b91b81526009016110e591611e28565b61088b60f21b81526002016d2261747472696275746573223a5b60901b8152600e017f7b2274726169745f74797065223a2250686f746f222c2276616c7565223a22008152601f0161113691611e28565b62089f4b60ea1b81526003017f7b2274726169745f74797065223a224c6963656e73652054797065222c22766181527f6c7565223a225374616e6461726420526f79616c74792d46726565227d2c00006020820152603e017f7b2274726169745f74797065223a2250726963652050616964222c226469737081527f6c61795f74797065223a226e756d626572222c2276616c7565223a22000000006020820152603c016111e391611e28565b62089f4b60ea1b81526003017f7b2274726169745f74797065223a224275796572222c2276616c7565223a22008152601f0161121e91611e28565b62089f4b60ea1b81526003017f7b2274726169745f74797065223a2250686f746f67726170686572222c227661815265363ab2911d1160d11b602082015260260161126891611e28565b62089f4b60ea1b81526003017f7b2274726169745f74797065223a22507572636861736564204174222c22646981527f73706c61795f74797065223a2264617465222c2276616c7565223a00000000006020820152603b016112c991611e28565b611f4b60f21b81526002017f7b2274726169745f74797065223a2250686f746f204944222c2276616c7565228152611d1160f11b602082015260220161130e91611e28565b61227d60f01b8152600201615d7d60f01b815260020103601f19810182526113369082610cfe565b61133f906127a6565b6040517f646174613a6170706c69636174696f6e2f6a736f6e3b6261736536342c0000006020820152908190603d820161137891611e28565b03601f198101825261138a9082610cfe565b6040516103658192826102fe565b602036600319011261023b5760043560027f9b779b17422d0df92223018b32b4d1fa46e071723d6817e2486d003becc55f0054146115d55760027f9b779b17422d0df92223018b32b4d1fa46e071723d6817e2486d003becc55f0055611406815f52600d60205260405f2090565b80549091906001600160a01b0316156115c45761142e61142a600584015460ff1690565b1590565b6115b257600482015480340361159c575061144d6001600c5401600c55565b61152d600c54926114c961145f610e96565b848152336020820152346040820152426060820152611486865f52600e60205260405f2090565b8151815560208201516001820180546001600160a01b0319166001600160a01b039290921691909117905590600390606090604081015160028501550151910155565b6114d384336124b0565b80546001600160a01b03165f908152600f602052604090206114f6348254611e56565b90556115205f80808034611510875460018060a01b031690565b5af161151a611e63565b50611e92565b546001600160a01b031690565b604080516001600160a01b0392909216825234602083015242908201523392907f04af259bb4501a83279551a21f5baed67e463de6a2ce26106dafdbc282b678c990606090a461001860017f9b779b17422d0df92223018b32b4d1fa46e071723d6817e2486d003becc55f0055565b630d35e92160e01b5f526004523460245260445ffd5b635bf2483960e01b5f5260045260245ffd5b6290f0b160e51b5f5260045260245ffd5b633ee5aeb560e01b5f5260045ffd5b3461023b57604036600319011261023b57602060ff611634611604610425565b61160c61043b565b6001600160a01b039182165f9081526005865260408082209290931681526020919091522090565b54166040519015158152f35b3461023b57602036600319011261023b57611659610425565b611661611f12565b6001600160a01b031680156116b357600a80546001600160a01b0319811683179091556001600160a01b03167f8be0079c531659141344cd1fd0a4f28419497f9722a3daafe3b4186f6b6457e05f80a3005b631e4fbdf760e01b5f525f60045260245ffd5b6001600160a01b0382169291831561180e575f838152600260205260409020546001600160a01b031690336117fe575b6001600160a01b038216948490861580156117d2575b6001600160a01b0384165f90815260036020526040902060018154019055611740846104d3855f52600260205260405f2090565b8282897fddf252ad1be2c89b69c2b068fc378daa952ba7f163c4a11628f55a4df523b3ef5f80a4156117bc576117758261267f565b86036117ac575b5050506001600160a01b031680830361179457505050565b6364283d7b60e01b5f5260045260245260445260645ffd5b6117b5916126db565b5f8361177c565b868114611775576117cd82856125fc565b611775565b6117db836125da565b6001600160a01b0385165f90815260036020526040902080545f1901905561170c565b6118098433846128c5565b6116f6565b633250574960e11b5f525f60045260245ffd5b601f821161182e57505050565b5f5260205f20906020601f840160051c83019310611866575b601f0160051c01905b81811061185b575050565b5f8155600101611850565b9091508190611847565b919091825167ffffffffffffffff8111610d2057611898816118928454610cb2565b84611821565b6020601f82116001146118d75781906118c89394955f926118cc575b50508160011b915f199060031b1c19161790565b9055565b015190505f806118b4565b601f198216906118ea845f5260205f2090565b915f5b8181106119245750958360019596971061190c575b505050811b019055565b01515f1960f88460031b161c191690555f8080611902565b9192602060018192868b0151815501940192016118ed565b815181546001600160a01b0319166001600160a01b03919091161781559060018201602082015180519067ffffffffffffffff8211610d2057611989826119838554610cb2565b85611821565b602090601f8311600114611a1957826006959360c095936119be935f926118cc5750508160011b915f199060031b1c19161790565b90555b6119d2604082015160028601611870565b6119e3606082015160038601611870565b60808101516004850155611a126119fd60a0830151151590565b600586019060ff801983541691151516179055565b0151910155565b90601f19831691611a2d855f5260205f2090565b925f5b818110611a7157509260019285926006989660c0989610611a59575b505050811b0190556119c1565b01515f1960f88460031b161c191690555f8080611a4c565b92936020600181928786015181550195019301611a30565b908060209392818452848401375f828201840152601f01601f1916010190565b90611ac39061030f96949593606084526060840191611a89565b9360208201526040818503910152611a89565b949296959193968115611c09578315611bfa5767016345785d8a000083108015611be9575b611bd557600b5493612710851015611bc657611b6e98611bb3611bc193611b4560017fc5599502ef7e08dc858db3591620b575377af375ff511bf863940d8ea1e4d8319901600b55565b600b549b8c99611b53610ea5565b33815292611b62368a8f610ed0565b60208501523691610ed0565b6040820152611b7e368585610ed0565b6060820152866080820152611b9660a0820160019052565b4260c0820152611bae895f52600d60205260405f2090565b61193c565b604051948594339986611aa9565b0390a3565b63c42489fb60e01b5f5260045ffd5b637cb1974360e11b5f52600483905260245ffd5b506706f05b59d3b200008311611afb565b6326f93fd560e21b5f5260045ffd5b6352ddcdef60e11b5f5260045ffd5b611c2181611d18565b821015611c495760018060a01b03165f52600660205260405f20905f5260205260405f205490565b63295f44f760e21b5f5260018060a01b031660045260245260445ffd5b60405190611c75602083610cfe565b5f8252565b634e487b7160e01b5f52603260045260245ffd5b67ffffffffffffffff8111610d205760051b60200190565b90611cb082611c8e565b611cbd6040519182610cfe565b8281528092611cce601f1991611c8e565b0190602036910137565b8051821015611cec5760209160051b010190565b611c7a565b634e487b7160e01b5f52601160045260245ffd5b5f198114611d135760010190565b611cf1565b6001600160a01b03168015611d36575f52600360205260405f205490565b6322718ad960e21b5f525f60045260245ffd5b906040516080810181811067ffffffffffffffff821117610d205760409081528354825260018401546001600160a01b031660208301526002840154908201526003909201546060830152565b9060405160e0810181811067ffffffffffffffff821117610d205760405282546001600160a01b0316815291829060c090600690611dd660018201610d25565b6020850152611de760028201610d25565b6040850152611df860038201610d25565b606085015260048101546080850152611e21611e18600583015460ff1690565b151560a0860152565b0154910152565b805191908290602001825e015f815290565b9060028201809211611d1357565b9060018201809211611d1357565b91908201809211611d1357565b3d15611e8d573d90611e7482610eb4565b91611e826040519384610cfe565b82523d5f602084013e565b606090565b15611e9957565b60405162461bcd60e51b815260206004820152601f60248201527f5472616e7366657220746f2070686f746f67726170686572206661696c6564006044820152606490fd5b5f818152600260205260409020546001600160a01b0316908115611f00575090565b637e27328960e01b5f5260045260245ffd5b600a546001600160a01b03163303611f2657565b63118cdaa760e01b5f523360045260245ffd5b9081602091031261023b575161030f8161023f565b6001600160a01b03918216815291166020820152604081019190915260806060820181905261030f929101906102da565b9092833b611f8e575b50505050565b604051630a85bd0160e11b81529260209284928392611fb2925f9060048601611f4e565b03815f6001600160a01b0387165af15f918161203f575b506120035750611fd7611e63565b8051919082611ffc57633250574960e11b5f526001600160a01b03821660045260245ffd5b6020915001fd5b6001600160e01b03191663757a42ff60e11b0161202457505f808080611f88565b633250574960e11b5f526001600160a01b031660045260245ffd5b61206291925060203d602011612069575b61205a8183610cfe565b810190611f39565b905f611fc9565b503d612050565b939193843b612081575b5050505050565b6120a26020936040519586948594630a85bd0160e11b865260048601611f4e565b03815f6001600160a01b0387165af15f91816120e9575b506120c75750611fd7611e63565b6001600160e01b03191663757a42ff60e11b0161202457505f8080808061207a565b61210391925060203d6020116120695761205a8183610cfe565b905f6120b9565b9061211482610eb4565b6121216040519182610cfe565b8281528092611cce601f1991610eb4565b805f9172184f03e93ff9f4daa797ed6e38ed64bf6a1f0160401b821015612265575b806d04ee2d6d415b85acef8100000000600a921015612249575b662386f26fc10000811015612234575b6305f5e100811015612222575b612710811015612212575b6064811015612203575b10156121f8575b6121e360216121b86001850161210a565b938401015b5f1901916f181899199a1a9b1b9c1cb0b131b232b360811b600a82061a8353600a900490565b80156121f3576121e390916121bd565b505090565b6001909101906121a7565b600290606490049301926121a0565b6004906127109004930192612196565b6008906305f5e100900493019261218b565b601090662386f26fc10000900493019261217e565b6020906d04ee2d6d415b85acef8100000000900493019261216e565b506040915072184f03e93ff9f4daa797ed6e38ed64bf6a1f0160401b8104612154565b908160011b9180830460021490151715611d1357565b600281901b91906001600160fe1b03811603611d1357565b805160011015611cec5760210190565b908151811015611cec570160200190565b906122ea6122e58351612288565b61210a565b5f805b84518210156123a75761231161230383876122c6565b516001600160f81b03191690565b916001600160f81b03198316601160f91b8114908115612399575b501561236a5781605c61234a612343600195611d05565b92876122c6565b5361236161235782611d05565b945f1a91866122c6565b535b01906122ed565b60208360f81c1015612381575b6001919250612363565b60019161239061235782611d05565b53829150612377565b601760fa1b1490505f61232c565b8252509150565b61030f6123e8916123f66123d6670de0b6b3a76400006123cf818504612132565b930661271e565b60016040519586946020860190611e28565b601760f91b81520190611e28565b03601f198101835282610cfe565b6001600160a01b03168061241b6122e56028611e3a565b91825115611cec57603060208401536078612435846122b6565b536124406028611e48565b600181116124685750612451575090565b63e22e27eb60e01b5f52600452601460245260445ffd5b90600f81166010811015611cec576124ab916124a5916f181899199a1a9b1b9c1cb0b131b232b360811b901a61249e85886122c6565b5360041c90565b9161279a565b612440565b90604051906124c0602083610cfe565b5f82526001600160a01b038316801561180e575f828152600260205260409020546001600160a01b03168015801592908290846125ae575b6001600160a01b0388165f9081526003602052604090206001815401905561252c886104d3885f52600260205260405f2090565b8583837fddf252ad1be2c89b69c2b068fc378daa952ba7f163c4a11628f55a4df523b3ef5f80a415612598576125618561267f565b03612589575b5061257657610d5d9233611f7f565b6339e3563760e11b5f525f60045260245ffd5b61259383866126db565b612567565b808214612561576125a985846125fc565b612561565b6125b7866125da565b6001600160a01b0384165f90815260036020526040902080545f190190556124f8565b6125ec905f52600460205260405f2090565b80546001600160a01b0319169055565b5f916126519161260b81611d18565b91808552600760205260408520549160018060a01b0316855260066020526040852091838103612654575b5084526007602052836040812055905f5260205260405f2090565b55565b838652826020526040862054818752836020528060408820558652600760205260408620555f612636565b600854815f5260096020528060405f205568010000000000000000811015610d205760018101600855600854811015611cec5760085f527ff3f7a9fe364faab93b216da50a3214154f22a0a2b415b23a84c8169e8b636ee30155565b906126e582611d18565b5f19810192908311611d135760018060a01b03165f52600660205260405f20825f526020528060405f20555f52600760205260405f2055565b61272790612132565b805160128110156127965760120391601283119182611d13576127498461210a565b935f845b611d13578181101561277057806030612768600193896122c6565b53018461274d565b50506127909250926123f661030f92946040519485936020850190611e28565b90611e28565b5090565b8015611d13575f190190565b908151156128bb576127ca6127c56127be8451611e3a565b6003900490565b61229e565b90604051917f4142434445464748494a4b4c4d4e4f505152535455565758595a616263646566601f527f6768696a6b6c6d6e6f707172737475767778797a303132333435363738392b2f603f52602083018480518101602081018051915f82525b80891061287f575060209596975090600392915251068060011461286a5760021461285d575b50808452830101604052565b603d905f1901535f612851565b50603d90815f1982015360011901535f612851565b939760036004910198603f8a51818160121c165183538181600c1c16516001840153818160061c1651600284015316516003820153019361282b565b905061030f611c66565b9091906128e36001600160a01b038416801515908161292b57501590565b6128ec57505050565b6001600160a01b031661290b57637e27328960e01b5f5260045260245ffd5b63177e802f60e01b5f526001600160a01b0390911660045260245260445ffd5b6001600160a01b0384168082149250821561296b575b50811561294d57501590565b5f858152600460205260409020546001600160a01b03161415919050565b9091505f52600560205260ff6129948660405f209060018060a01b03165f5260205260405f2090565b5416905f61294156fea26469706673582212209f95b882aeeb112fbc92bc8666fa76dddca639d1c4f9929e797fe1e91696b3f164736f6c634300081b0033",
  "linkReferences": {},
  "deployedLinkReferences": {}
}